{
    "contractName": "Stray",
    "abi": [
        {
            "inputs": [],
            "stateMutability": "nonpayable",
            "type": "constructor"
        },
        {
            "inputs": [],
            "name": "ApprovalCallerNotOwnerNorApproved",
            "type": "error"
        },
        {
            "inputs": [],
            "name": "ApprovalQueryForNonexistentToken",
            "type": "error"
        },
        {
            "inputs": [],
            "name": "BalanceQueryForZeroAddress",
            "type": "error"
        },
        {
            "inputs": [],
            "name": "MintERC2309QuantityExceedsLimit",
            "type": "error"
        },
        {
            "inputs": [],
            "name": "MintToZeroAddress",
            "type": "error"
        },
        {
            "inputs": [],
            "name": "MintZeroQuantity",
            "type": "error"
        },
        {
            "inputs": [],
            "name": "OwnerQueryForNonexistentToken",
            "type": "error"
        },
        {
            "inputs": [],
            "name": "OwnershipNotInitializedForExtraData",
            "type": "error"
        },
        {
            "inputs": [],
            "name": "TransferCallerNotOwnerNorApproved",
            "type": "error"
        },
        {
            "inputs": [],
            "name": "TransferFromIncorrectOwner",
            "type": "error"
        },
        {
            "inputs": [],
            "name": "TransferToNonERC721ReceiverImplementer",
            "type": "error"
        },
        {
            "inputs": [],
            "name": "TransferToZeroAddress",
            "type": "error"
        },
        {
            "inputs": [],
            "name": "URIQueryForNonexistentToken",
            "type": "error"
        },
        {
            "anonymous": false,
            "inputs": [
                {
                    "indexed": true,
                    "internalType": "address",
                    "name": "owner",
                    "type": "address"
                },
                {
                    "indexed": true,
                    "internalType": "address",
                    "name": "approved",
                    "type": "address"
                },
                {
                    "indexed": true,
                    "internalType": "uint256",
                    "name": "tokenId",
                    "type": "uint256"
                }
            ],
            "name": "Approval",
            "type": "event"
        },
        {
            "anonymous": false,
            "inputs": [
                {
                    "indexed": true,
                    "internalType": "address",
                    "name": "owner",
                    "type": "address"
                },
                {
                    "indexed": true,
                    "internalType": "address",
                    "name": "operator",
                    "type": "address"
                },
                {
                    "indexed": false,
                    "internalType": "bool",
                    "name": "approved",
                    "type": "bool"
                }
            ],
            "name": "ApprovalForAll",
            "type": "event"
        },
        {
            "anonymous": false,
            "inputs": [
                {
                    "indexed": true,
                    "internalType": "uint256",
                    "name": "fromTokenId",
                    "type": "uint256"
                },
                {
                    "indexed": false,
                    "internalType": "uint256",
                    "name": "toTokenId",
                    "type": "uint256"
                },
                {
                    "indexed": true,
                    "internalType": "address",
                    "name": "from",
                    "type": "address"
                },
                {
                    "indexed": true,
                    "internalType": "address",
                    "name": "to",
                    "type": "address"
                }
            ],
            "name": "ConsecutiveTransfer",
            "type": "event"
        },
        {
            "anonymous": false,
            "inputs": [
                {
                    "indexed": true,
                    "internalType": "address",
                    "name": "previousOwner",
                    "type": "address"
                },
                {
                    "indexed": true,
                    "internalType": "address",
                    "name": "newOwner",
                    "type": "address"
                }
            ],
            "name": "OwnershipTransferred",
            "type": "event"
        },
        {
            "anonymous": false,
            "inputs": [
                {
                    "indexed": true,
                    "internalType": "address",
                    "name": "from",
                    "type": "address"
                },
                {
                    "indexed": true,
                    "internalType": "address",
                    "name": "to",
                    "type": "address"
                },
                {
                    "indexed": true,
                    "internalType": "uint256",
                    "name": "tokenId",
                    "type": "uint256"
                }
            ],
            "name": "Transfer",
            "type": "event"
        },
        {
            "inputs": [
                {
                    "internalType": "address",
                    "name": "to",
                    "type": "address"
                },
                {
                    "internalType": "uint256",
                    "name": "tokenId",
                    "type": "uint256"
                }
            ],
            "name": "approve",
            "outputs": [],
            "stateMutability": "payable",
            "type": "function"
        },
        {
            "inputs": [
                {
                    "internalType": "address",
                    "name": "owner",
                    "type": "address"
                }
            ],
            "name": "balanceOf",
            "outputs": [
                {
                    "internalType": "uint256",
                    "name": "",
                    "type": "uint256"
                }
            ],
            "stateMutability": "view",
            "type": "function"
        },
        {
            "inputs": [
                {
                    "internalType": "uint256",
                    "name": "tokenId",
                    "type": "uint256"
                }
            ],
            "name": "getApproved",
            "outputs": [
                {
                    "internalType": "address",
                    "name": "",
                    "type": "address"
                }
            ],
            "stateMutability": "view",
            "type": "function"
        },
        {
            "inputs": [],
            "name": "getMaxSupply",
            "outputs": [
                {
                    "internalType": "uint256",
                    "name": "",
                    "type": "uint256"
                }
            ],
            "stateMutability": "view",
            "type": "function"
        },
        {
            "inputs": [
                {
                    "internalType": "address",
                    "name": "owner",
                    "type": "address"
                },
                {
                    "internalType": "address",
                    "name": "operator",
                    "type": "address"
                }
            ],
            "name": "isApprovedForAll",
            "outputs": [
                {
                    "internalType": "bool",
                    "name": "",
                    "type": "bool"
                }
            ],
            "stateMutability": "view",
            "type": "function"
        },
        {
            "inputs": [],
            "name": "maxSupply",
            "outputs": [
                {
                    "internalType": "uint256",
                    "name": "",
                    "type": "uint256"
                }
            ],
            "stateMutability": "view",
            "type": "function"
        },
        {
            "inputs": [
                {
                    "internalType": "uint256",
                    "name": "quantity",
                    "type": "uint256"
                }
            ],
            "name": "mint",
            "outputs": [],
            "stateMutability": "payable",
            "type": "function"
        },
        {
            "inputs": [],
            "name": "name",
            "outputs": [
                {
                    "internalType": "string",
                    "name": "",
                    "type": "string"
                }
            ],
            "stateMutability": "view",
            "type": "function"
        },
        {
            "inputs": [],
            "name": "owner",
            "outputs": [
                {
                    "internalType": "address",
                    "name": "",
                    "type": "address"
                }
            ],
            "stateMutability": "view",
            "type": "function"
        },
        {
            "inputs": [
                {
                    "internalType": "uint256",
                    "name": "tokenId",
                    "type": "uint256"
                }
            ],
            "name": "ownerOf",
            "outputs": [
                {
                    "internalType": "address",
                    "name": "",
                    "type": "address"
                }
            ],
            "stateMutability": "view",
            "type": "function"
        },
        {
            "inputs": [],
            "name": "renounceOwnership",
            "outputs": [],
            "stateMutability": "nonpayable",
            "type": "function"
        },
        {
            "inputs": [
                {
                    "internalType": "address",
                    "name": "from",
                    "type": "address"
                },
                {
                    "internalType": "address",
                    "name": "to",
                    "type": "address"
                },
                {
                    "internalType": "uint256",
                    "name": "tokenId",
                    "type": "uint256"
                }
            ],
            "name": "safeTransferFrom",
            "outputs": [],
            "stateMutability": "payable",
            "type": "function"
        },
        {
            "inputs": [
                {
                    "internalType": "address",
                    "name": "from",
                    "type": "address"
                },
                {
                    "internalType": "address",
                    "name": "to",
                    "type": "address"
                },
                {
                    "internalType": "uint256",
                    "name": "tokenId",
                    "type": "uint256"
                },
                {
                    "internalType": "bytes",
                    "name": "_data",
                    "type": "bytes"
                }
            ],
            "name": "safeTransferFrom",
            "outputs": [],
            "stateMutability": "payable",
            "type": "function"
        },
        {
            "inputs": [
                {
                    "internalType": "address",
                    "name": "operator",
                    "type": "address"
                },
                {
                    "internalType": "bool",
                    "name": "approved",
                    "type": "bool"
                }
            ],
            "name": "setApprovalForAll",
            "outputs": [],
            "stateMutability": "nonpayable",
            "type": "function"
        },
        {
            "inputs": [
                {
                    "internalType": "string",
                    "name": "baseURI",
                    "type": "string"
                }
            ],
            "name": "setBaseURI",
            "outputs": [],
            "stateMutability": "nonpayable",
            "type": "function"
        },
        {
            "inputs": [
                {
                    "internalType": "uint256",
                    "name": "supply",
                    "type": "uint256"
                }
            ],
            "name": "setMaxSupply",
            "outputs": [],
            "stateMutability": "nonpayable",
            "type": "function"
        },
        {
            "inputs": [
                {
                    "internalType": "uint256",
                    "name": "price",
                    "type": "uint256"
                }
            ],
            "name": "setTokenPrice",
            "outputs": [],
            "stateMutability": "nonpayable",
            "type": "function"
        },
        {
            "inputs": [
                {
                    "internalType": "bytes4",
                    "name": "interfaceId",
                    "type": "bytes4"
                }
            ],
            "name": "supportsInterface",
            "outputs": [
                {
                    "internalType": "bool",
                    "name": "",
                    "type": "bool"
                }
            ],
            "stateMutability": "view",
            "type": "function"
        },
        {
            "inputs": [],
            "name": "symbol",
            "outputs": [
                {
                    "internalType": "string",
                    "name": "",
                    "type": "string"
                }
            ],
            "stateMutability": "view",
            "type": "function"
        },
        {
            "inputs": [],
            "name": "tokenPrice",
            "outputs": [
                {
                    "internalType": "uint256",
                    "name": "",
                    "type": "uint256"
                }
            ],
            "stateMutability": "view",
            "type": "function"
        },
        {
            "inputs": [
                {
                    "internalType": "uint256",
                    "name": "tokenId",
                    "type": "uint256"
                }
            ],
            "name": "tokenURI",
            "outputs": [
                {
                    "internalType": "string",
                    "name": "",
                    "type": "string"
                }
            ],
            "stateMutability": "view",
            "type": "function"
        },
        {
            "inputs": [],
            "name": "totalSupply",
            "outputs": [
                {
                    "internalType": "uint256",
                    "name": "",
                    "type": "uint256"
                }
            ],
            "stateMutability": "view",
            "type": "function"
        },
        {
            "inputs": [
                {
                    "internalType": "address",
                    "name": "from",
                    "type": "address"
                },
                {
                    "internalType": "address",
                    "name": "to",
                    "type": "address"
                },
                {
                    "internalType": "uint256",
                    "name": "tokenId",
                    "type": "uint256"
                }
            ],
            "name": "transferFrom",
            "outputs": [],
            "stateMutability": "payable",
            "type": "function"
        },
        {
            "inputs": [
                {
                    "internalType": "address",
                    "name": "newOwner",
                    "type": "address"
                }
            ],
            "name": "transferOwnership",
            "outputs": [],
            "stateMutability": "nonpayable",
            "type": "function"
        },
        {
            "inputs": [],
            "name": "withdraw",
            "outputs": [],
            "stateMutability": "nonpayable",
            "type": "function"
        },
        {
            "inputs": [],
            "name": "withdrawWalletAddress",
            "outputs": [
                {
                    "internalType": "address payable",
                    "name": "",
                    "type": "address"
                }
            ],
            "stateMutability": "view",
            "type": "function"
        }
    ],
    "bytecode": "605c600955633b9aca00600a5560e060405260366080818152906200179560a039600b906200002f9082620001a9565b503480156200003d57600080fd5b5060405180604001604052806005815260200164537472617960d81b81525060405180604001604052806005815260200164535452415960d81b81525081600290816200008b9190620001a9565b5060036200009a8282620001a9565b50506000805550620000ac33620000b2565b62000275565b600880546001600160a01b038381166001600160a01b0319831681179093556040519116919082907f8be0079c531659141344cd1fd0a4f28419497f9722a3daafe3b4186f6b6457e090600090a35050565b634e487b7160e01b600052604160045260246000fd5b600181811c908216806200012f57607f821691505b6020821081036200015057634e487b7160e01b600052602260045260246000fd5b50919050565b601f821115620001a457600081815260208120601f850160051c810160208610156200017f5750805b601f850160051c820191505b81811015620001a0578281556001016200018b565b5050505b505050565b81516001600160401b03811115620001c557620001c562000104565b620001dd81620001d684546200011a565b8462000156565b602080601f831160018114620002155760008415620001fc5750858301515b600019600386901b1c1916600185901b178555620001a0565b600085815260208120601f198616915b82811015620002465788860151825594840194600190910190840162000225565b5085821015620002655787850151600019600388901b60f8161c191681555b5050505050600190811b01905550565b61151080620002856000396000f3fe6080604052600436106101815760003560e01c806370a08231116100d1578063a22cb4651161008a578063c87b56dd11610064578063c87b56dd14610401578063d5abeb0114610421578063e985e9c514610437578063f2fde38b1461045757600080fd5b8063a22cb465146103ae578063b14ec101146103ce578063b88d4fde146103ee57600080fd5b806370a082311461031d578063715018a61461033d5780637ff9b596146103525780638da5cb5b1461036857806395d89b4114610386578063a0712d681461039b57600080fd5b80633ccfd60b1161013e57806355f804b31161011857806355f804b31461029d5780636352211e146102bd5780636a61e5fc146102dd5780636f8b44b0146102fd57600080fd5b80633ccfd60b1461026057806342842e0e146102755780634c0f38c21461028857600080fd5b806301ffc9a71461018657806306fdde03146101bb578063081812fc146101dd578063095ea7b31461021557806318160ddd1461022a57806323b872dd1461024d575b600080fd5b34801561019257600080fd5b506101a66101a1366004610f5f565b610477565b60405190151581526020015b60405180910390f35b3480156101c757600080fd5b506101d06104c9565b6040516101b29190610fcc565b3480156101e957600080fd5b506101fd6101f8366004610fdf565b61055b565b6040516001600160a01b0390911681526020016101b2565b610228610223366004611014565b61059f565b005b34801561023657600080fd5b50600154600054035b6040519081526020016101b2565b61022861025b36600461103e565b61063f565b34801561026c57600080fd5b506102286107d8565b61022861028336600461103e565b61087d565b34801561029457600080fd5b5060095461023f565b3480156102a957600080fd5b506102286102b836600461107a565b61089d565b3480156102c957600080fd5b506101fd6102d8366004610fdf565b6108b2565b3480156102e957600080fd5b506102286102f8366004610fdf565b6108bd565b34801561030957600080fd5b50610228610318366004610fdf565b6108ca565b34801561032957600080fd5b5061023f6103383660046110ec565b6108d7565b34801561034957600080fd5b50610228610926565b34801561035e57600080fd5b5061023f600a5481565b34801561037457600080fd5b506008546001600160a01b03166101fd565b34801561039257600080fd5b506101d061093a565b6102286103a9366004610fdf565b610949565b3480156103ba57600080fd5b506102286103c9366004611107565b610a01565b3480156103da57600080fd5b50600c546101fd906001600160a01b031681565b6102286103fc366004611159565b610a6d565b34801561040d57600080fd5b506101d061041c366004610fdf565b610ab7565b34801561042d57600080fd5b5061023f60095481565b34801561044357600080fd5b506101a6610452366004611235565b610b37565b34801561046357600080fd5b506102286104723660046110ec565b610b65565b60006301ffc9a760e01b6001600160e01b0319831614806104a857506380ac58cd60e01b6001600160e01b03198316145b806104c35750635b5e139f60e01b6001600160e01b03198316145b92915050565b6060600280546104d890611268565b80601f016020809104026020016040519081016040528092919081815260200182805461050490611268565b80156105515780601f1061052657610100808354040283529160200191610551565b820191906000526020600020905b81548152906001019060200180831161053457829003601f168201915b5050505050905090565b600061056682610bdb565b610583576040516333d1c03960e21b815260040160405180910390fd5b506000908152600660205260409020546001600160a01b031690565b60006105aa826108b2565b9050336001600160a01b038216146105e3576105c68133610b37565b6105e3576040516367d9dca160e11b815260040160405180910390fd5b60008281526006602052604080822080546001600160a01b0319166001600160a01b0387811691821790925591518593918516917f8c5be1e5ebec7d5bd14f71427d1e84f3dd0314c0f7b2291e5b200ac8c7c3b92591a4505050565b600061064a82610c02565b9050836001600160a01b0316816001600160a01b03161461067d5760405162a1148160e81b815260040160405180910390fd5b60008281526006602052604090208054338082146001600160a01b038816909114176106ca576106ad8633610b37565b6106ca57604051632ce44b5f60e11b815260040160405180910390fd5b6001600160a01b0385166106f157604051633a954ecd60e21b815260040160405180910390fd5b80156106fc57600082555b6001600160a01b038681166000908152600560205260408082208054600019019055918716808252919020805460010190554260a01b17600160e11b17600085815260046020526040812091909155600160e11b8416900361078e5760018401600081815260046020526040812054900361078c57600054811461078c5760008181526004602052604090208490555b505b83856001600160a01b0316876001600160a01b03167fddf252ad1be2c89b69c2b068fc378daa952ba7f163c4a11628f55a4df523b3ef60405160405180910390a45b505050505050565b6107e0610c70565b600c546040516000916001600160a01b03169047908381818185875af1925050503d806000811461082d576040519150601f19603f3d011682016040523d82523d6000602084013e610832565b606091505b505090508061087a5760405162461bcd60e51b815260206004820152600f60248201526e1dda5d1a191c985dc819985a5b1959608a1b60448201526064015b60405180910390fd5b50565b61089883838360405180602001604052806000815250610a6d565b505050565b6108a5610c70565b600b6108988284836112e8565b60006104c382610c02565b6108c5610c70565b600a55565b6108d2610c70565b600955565b60006001600160a01b038216610900576040516323d3ad8160e21b815260040160405180910390fd5b506001600160a01b031660009081526005602052604090205467ffffffffffffffff1690565b61092e610c70565b6109386000610cca565b565b6060600380546104d890611268565b6009548161095660005490565b61096091906113bf565b11156109a75760405162461bcd60e51b8152602060048201526016602482015275139bdd08195b9bdd59da081cdd5c1c1b1e481b19599d60521b6044820152606401610871565b600a546109b490826113d2565b3410156109f75760405162461bcd60e51b8152602060048201526011602482015270496e737566666963656e742046756e647360781b6044820152606401610871565b61087a3382610d1c565b3360008181526007602090815260408083206001600160a01b03871680855290835292819020805460ff191686151590811790915590519081529192917f17307eab39ab6107e8899845ad3d59bd9653f200f220920489ca2b5937696c31910160405180910390a35050565b610a7884848461063f565b6001600160a01b0383163b15610ab157610a9484848484610e1a565b610ab1576040516368d2bf6b60e11b815260040160405180910390fd5b50505050565b6060610ac282610bdb565b610b055760405162461bcd60e51b8152602060048201526014602482015273151bdad95b88191bd95cc81b9bdd08195e1a5cdd60621b6044820152606401610871565b600b610b1083610f05565b604051602001610b219291906113e9565b6040516020818303038152906040529050919050565b6001600160a01b03918216600090815260076020908152604080832093909416825291909152205460ff1690565b610b6d610c70565b6001600160a01b038116610bd25760405162461bcd60e51b815260206004820152602660248201527f4f776e61626c653a206e6577206f776e657220697320746865207a65726f206160448201526564647265737360d01b6064820152608401610871565b61087a81610cca565b60008054821080156104c3575050600090815260046020526040902054600160e01b161590565b600081600054811015610c575760008181526004602052604081205490600160e01b82169003610c55575b80600003610c4e575060001901600081815260046020526040902054610c2d565b9392505050565b505b604051636f96cda160e11b815260040160405180910390fd5b6008546001600160a01b031633146109385760405162461bcd60e51b815260206004820181905260248201527f4f776e61626c653a2063616c6c6572206973206e6f7420746865206f776e65726044820152606401610871565b600880546001600160a01b038381166001600160a01b0319831681179093556040519116919082907f8be0079c531659141344cd1fd0a4f28419497f9722a3daafe3b4186f6b6457e090600090a35050565b6000805490829003610d415760405163b562e8dd60e01b815260040160405180910390fd5b6001600160a01b03831660008181526005602090815260408083208054680100000000000000018802019055848352600490915281206001851460e11b4260a01b178317905582840190839083907fddf252ad1be2c89b69c2b068fc378daa952ba7f163c4a11628f55a4df523b3ef8180a4600183015b818114610df057808360007fddf252ad1be2c89b69c2b068fc378daa952ba7f163c4a11628f55a4df523b3ef600080a4600101610db8565b5081600003610e1157604051622e076360e81b815260040160405180910390fd5b60005550505050565b604051630a85bd0160e11b81526000906001600160a01b0385169063150b7a0290610e4f903390899088908890600401611480565b6020604051808303816000875af1925050508015610e8a575060408051601f3d908101601f19168201909252610e87918101906114bd565b60015b610ee8573d808015610eb8576040519150601f19603f3d011682016040523d82523d6000602084013e610ebd565b606091505b508051600003610ee0576040516368d2bf6b60e11b815260040160405180910390fd5b805181602001fd5b6001600160e01b031916630a85bd0160e11b149050949350505050565b606060a06040510180604052602081039150506000815280825b600183039250600a81066030018353600a900480610f1f5750819003601f19909101908152919050565b6001600160e01b03198116811461087a57600080fd5b600060208284031215610f7157600080fd5b8135610c4e81610f49565b60005b83811015610f97578181015183820152602001610f7f565b50506000910152565b60008151808452610fb8816020860160208601610f7c565b601f01601f19169290920160200192915050565b602081526000610c4e6020830184610fa0565b600060208284031215610ff157600080fd5b5035919050565b80356001600160a01b038116811461100f57600080fd5b919050565b6000806040838503121561102757600080fd5b61103083610ff8565b946020939093013593505050565b60008060006060848603121561105357600080fd5b61105c84610ff8565b925061106a60208501610ff8565b9150604084013590509250925092565b6000806020838503121561108d57600080fd5b823567ffffffffffffffff808211156110a557600080fd5b818501915085601f8301126110b957600080fd5b8135818111156110c857600080fd5b8660208285010111156110da57600080fd5b60209290920196919550909350505050565b6000602082840312156110fe57600080fd5b610c4e82610ff8565b6000806040838503121561111a57600080fd5b61112383610ff8565b91506020830135801515811461113857600080fd5b809150509250929050565b634e487b7160e01b600052604160045260246000fd5b6000806000806080858703121561116f57600080fd5b61117885610ff8565b935061118660208601610ff8565b925060408501359150606085013567ffffffffffffffff808211156111aa57600080fd5b818701915087601f8301126111be57600080fd5b8135818111156111d0576111d0611143565b604051601f8201601f19908116603f011681019083821181831017156111f8576111f8611143565b816040528281528a602084870101111561121157600080fd5b82602086016020830137600060208483010152809550505050505092959194509250565b6000806040838503121561124857600080fd5b61125183610ff8565b915061125f60208401610ff8565b90509250929050565b600181811c9082168061127c57607f821691505b60208210810361129c57634e487b7160e01b600052602260045260246000fd5b50919050565b601f82111561089857600081815260208120601f850160051c810160208610156112c95750805b601f850160051c820191505b818110156107d0578281556001016112d5565b67ffffffffffffffff83111561130057611300611143565b6113148361130e8354611268565b836112a2565b6000601f84116001811461134857600085156113305750838201355b600019600387901b1c1916600186901b1783556113a2565b600083815260209020601f19861690835b828110156113795786850135825560209485019460019092019101611359565b50868210156113965760001960f88860031b161c19848701351681555b505060018560011b0183555b5050505050565b634e487b7160e01b600052601160045260246000fd5b808201808211156104c3576104c36113a9565b80820281158282048414176104c3576104c36113a9565b60008084546113f781611268565b6001828116801561140f576001811461142457611453565b60ff1984168752821515830287019450611453565b8860005260208060002060005b8581101561144a5781548a820152908401908201611431565b50505082870194505b505050508351611467818360208801610f7c565b64173539b7b760d91b9101908152600501949350505050565b6001600160a01b03858116825284166020820152604081018390526080606082018190526000906114b390830184610fa0565b9695505050505050565b6000602082840312156114cf57600080fd5b8151610c4e81610f4956fea2646970667358221220f6fac30d544d3f53ee8a993dfab0846c413103b8621c8413b7e6c04355219d1864736f6c63430008130033697066733a2f2f516d584d6550365a33536e7358567867666e54646f69646f36767470506f38396a32477456474d474b387655657a2f",
    "sourcePath": "d:/Projects/web/strayNFT/contracts/Stray.sol",
    "compiler": {
        "name": "solc",
        "version": "0.8.19+commit.7dd6d404"
    },
    "functionHashes": {
        "approve(address,uint256)": "095ea7b3",
        "balanceOf(address)": "70a08231",
        "getApproved(uint256)": "081812fc",
        "getMaxSupply()": "4c0f38c2",
        "isApprovedForAll(address,address)": "e985e9c5",
        "maxSupply()": "d5abeb01",
        "mint(uint256)": "a0712d68",
        "name()": "06fdde03",
        "owner()": "8da5cb5b",
        "ownerOf(uint256)": "6352211e",
        "renounceOwnership()": "715018a6",
        "safeTransferFrom(address,address,uint256)": "42842e0e",
        "safeTransferFrom(address,address,uint256,bytes)": "b88d4fde",
        "setApprovalForAll(address,bool)": "a22cb465",
        "setBaseURI(string)": "55f804b3",
        "setMaxSupply(uint256)": "6f8b44b0",
        "setTokenPrice(uint256)": "6a61e5fc",
        "supportsInterface(bytes4)": "01ffc9a7",
        "symbol()": "95d89b41",
        "tokenPrice()": "7ff9b596",
        "tokenURI(uint256)": "c87b56dd",
        "totalSupply()": "18160ddd",
        "transferFrom(address,address,uint256)": "23b872dd",
        "transferOwnership(address)": "f2fde38b",
        "withdraw()": "3ccfd60b",
        "withdrawWalletAddress()": "b14ec101"
    },
    "gasEstimates": {
        "creation": {
            "codeDepositCost": "1078400",
            "executionCost": "infinite",
            "totalCost": "infinite"
        },
        "external": {
            "approve(address,uint256)": "infinite",
            "balanceOf(address)": "2618",
            "getApproved(uint256)": "6925",
            "getMaxSupply()": "2382",
            "isApprovedForAll(address,address)": "infinite",
            "maxSupply()": "2361",
            "mint(uint256)": "infinite",
            "name()": "infinite",
            "owner()": "2420",
            "ownerOf(uint256)": "infinite",
            "renounceOwnership()": "infinite",
            "safeTransferFrom(address,address,uint256)": "infinite",
            "safeTransferFrom(address,address,uint256,bytes)": "infinite",
            "setApprovalForAll(address,bool)": "26630",
            "setBaseURI(string)": "infinite",
            "setMaxSupply(uint256)": "24599",
            "setTokenPrice(uint256)": "24577",
            "supportsInterface(bytes4)": "534",
            "symbol()": "infinite",
            "tokenPrice()": "2362",
            "tokenURI(uint256)": "infinite",
            "totalSupply()": "4499",
            "transferFrom(address,address,uint256)": "infinite",
            "transferOwnership(address)": "28446",
            "withdraw()": "infinite",
            "withdrawWalletAddress()": "2404"
        },
        "internal": {
            "_baseURI()": "infinite"
        }
    }
}