{
  "_format": "hh-sol-artifact-1",
  "contractName": "Stray",
  "sourceName": "contracts/Stray.sol",
  "abi": [
    {
      "inputs": [
        {
          "internalType": "uint256",
          "name": "max_supply",
          "type": "uint256"
        },
        {
          "internalType": "string",
          "name": "base_token_URI",
          "type": "string"
        }
      ],
      "stateMutability": "nonpayable",
      "type": "constructor"
    },
    {
      "anonymous": false,
      "inputs": [
        {
          "indexed": true,
          "internalType": "address",
          "name": "owner",
          "type": "address"
        },
        {
          "indexed": true,
          "internalType": "address",
          "name": "approved",
          "type": "address"
        },
        {
          "indexed": true,
          "internalType": "uint256",
          "name": "tokenId",
          "type": "uint256"
        }
      ],
      "name": "Approval",
      "type": "event"
    },
    {
      "anonymous": false,
      "inputs": [
        {
          "indexed": true,
          "internalType": "address",
          "name": "owner",
          "type": "address"
        },
        {
          "indexed": true,
          "internalType": "address",
          "name": "operator",
          "type": "address"
        },
        {
          "indexed": false,
          "internalType": "bool",
          "name": "approved",
          "type": "bool"
        }
      ],
      "name": "ApprovalForAll",
      "type": "event"
    },
    {
      "anonymous": false,
      "inputs": [
        {
          "indexed": true,
          "internalType": "address",
          "name": "previousOwner",
          "type": "address"
        },
        {
          "indexed": true,
          "internalType": "address",
          "name": "newOwner",
          "type": "address"
        }
      ],
      "name": "OwnershipTransferred",
      "type": "event"
    },
    {
      "anonymous": false,
      "inputs": [
        {
          "indexed": true,
          "internalType": "address",
          "name": "from",
          "type": "address"
        },
        {
          "indexed": true,
          "internalType": "address",
          "name": "to",
          "type": "address"
        },
        {
          "indexed": true,
          "internalType": "uint256",
          "name": "tokenId",
          "type": "uint256"
        }
      ],
      "name": "Transfer",
      "type": "event"
    },
    {
      "inputs": [
        {
          "internalType": "address",
          "name": "to",
          "type": "address"
        },
        {
          "internalType": "uint256",
          "name": "tokenId",
          "type": "uint256"
        }
      ],
      "name": "approve",
      "outputs": [],
      "stateMutability": "nonpayable",
      "type": "function"
    },
    {
      "inputs": [
        {
          "internalType": "address",
          "name": "owner",
          "type": "address"
        }
      ],
      "name": "balanceOf",
      "outputs": [
        {
          "internalType": "uint256",
          "name": "",
          "type": "uint256"
        }
      ],
      "stateMutability": "view",
      "type": "function"
    },
    {
      "inputs": [
        {
          "internalType": "uint256",
          "name": "tokenId",
          "type": "uint256"
        }
      ],
      "name": "getApproved",
      "outputs": [
        {
          "internalType": "address",
          "name": "",
          "type": "address"
        }
      ],
      "stateMutability": "view",
      "type": "function"
    },
    {
      "inputs": [],
      "name": "getMaxSupply",
      "outputs": [
        {
          "internalType": "uint256",
          "name": "",
          "type": "uint256"
        }
      ],
      "stateMutability": "view",
      "type": "function"
    },
    {
      "inputs": [
        {
          "internalType": "address",
          "name": "owner",
          "type": "address"
        }
      ],
      "name": "getOwnerTokens",
      "outputs": [
        {
          "internalType": "uint256[]",
          "name": "",
          "type": "uint256[]"
        }
      ],
      "stateMutability": "view",
      "type": "function"
    },
    {
      "inputs": [
        {
          "internalType": "address",
          "name": "owner",
          "type": "address"
        },
        {
          "internalType": "address",
          "name": "operator",
          "type": "address"
        }
      ],
      "name": "isApprovedForAll",
      "outputs": [
        {
          "internalType": "bool",
          "name": "",
          "type": "bool"
        }
      ],
      "stateMutability": "view",
      "type": "function"
    },
    {
      "inputs": [],
      "name": "maxSupply",
      "outputs": [
        {
          "internalType": "uint256",
          "name": "",
          "type": "uint256"
        }
      ],
      "stateMutability": "view",
      "type": "function"
    },
    {
      "inputs": [
        {
          "internalType": "uint256",
          "name": "quantity",
          "type": "uint256"
        }
      ],
      "name": "mint",
      "outputs": [],
      "stateMutability": "payable",
      "type": "function"
    },
    {
      "inputs": [],
      "name": "name",
      "outputs": [
        {
          "internalType": "string",
          "name": "",
          "type": "string"
        }
      ],
      "stateMutability": "view",
      "type": "function"
    },
    {
      "inputs": [],
      "name": "owner",
      "outputs": [
        {
          "internalType": "address",
          "name": "",
          "type": "address"
        }
      ],
      "stateMutability": "view",
      "type": "function"
    },
    {
      "inputs": [
        {
          "internalType": "uint256",
          "name": "tokenId",
          "type": "uint256"
        }
      ],
      "name": "ownerOf",
      "outputs": [
        {
          "internalType": "address",
          "name": "",
          "type": "address"
        }
      ],
      "stateMutability": "view",
      "type": "function"
    },
    {
      "inputs": [],
      "name": "renounceOwnership",
      "outputs": [],
      "stateMutability": "nonpayable",
      "type": "function"
    },
    {
      "inputs": [
        {
          "internalType": "address",
          "name": "from",
          "type": "address"
        },
        {
          "internalType": "address",
          "name": "to",
          "type": "address"
        },
        {
          "internalType": "uint256",
          "name": "tokenId",
          "type": "uint256"
        }
      ],
      "name": "safeTransferFrom",
      "outputs": [],
      "stateMutability": "nonpayable",
      "type": "function"
    },
    {
      "inputs": [
        {
          "internalType": "address",
          "name": "from",
          "type": "address"
        },
        {
          "internalType": "address",
          "name": "to",
          "type": "address"
        },
        {
          "internalType": "uint256",
          "name": "tokenId",
          "type": "uint256"
        },
        {
          "internalType": "bytes",
          "name": "data",
          "type": "bytes"
        }
      ],
      "name": "safeTransferFrom",
      "outputs": [],
      "stateMutability": "nonpayable",
      "type": "function"
    },
    {
      "inputs": [
        {
          "internalType": "address",
          "name": "operator",
          "type": "address"
        },
        {
          "internalType": "bool",
          "name": "approved",
          "type": "bool"
        }
      ],
      "name": "setApprovalForAll",
      "outputs": [],
      "stateMutability": "nonpayable",
      "type": "function"
    },
    {
      "inputs": [
        {
          "internalType": "string",
          "name": "baseURI",
          "type": "string"
        }
      ],
      "name": "setBaseURI",
      "outputs": [],
      "stateMutability": "nonpayable",
      "type": "function"
    },
    {
      "inputs": [
        {
          "internalType": "uint256",
          "name": "supply",
          "type": "uint256"
        }
      ],
      "name": "setMaxSupply",
      "outputs": [],
      "stateMutability": "nonpayable",
      "type": "function"
    },
    {
      "inputs": [
        {
          "internalType": "uint256",
          "name": "price",
          "type": "uint256"
        }
      ],
      "name": "setTokenPrice",
      "outputs": [],
      "stateMutability": "nonpayable",
      "type": "function"
    },
    {
      "inputs": [
        {
          "internalType": "address payable",
          "name": "wallet",
          "type": "address"
        }
      ],
      "name": "setWithdrawWalletAddress",
      "outputs": [],
      "stateMutability": "nonpayable",
      "type": "function"
    },
    {
      "inputs": [
        {
          "internalType": "bytes4",
          "name": "interfaceId",
          "type": "bytes4"
        }
      ],
      "name": "supportsInterface",
      "outputs": [
        {
          "internalType": "bool",
          "name": "",
          "type": "bool"
        }
      ],
      "stateMutability": "view",
      "type": "function"
    },
    {
      "inputs": [],
      "name": "symbol",
      "outputs": [
        {
          "internalType": "string",
          "name": "",
          "type": "string"
        }
      ],
      "stateMutability": "view",
      "type": "function"
    },
    {
      "inputs": [],
      "name": "tokenPrice",
      "outputs": [
        {
          "internalType": "uint256",
          "name": "",
          "type": "uint256"
        }
      ],
      "stateMutability": "view",
      "type": "function"
    },
    {
      "inputs": [
        {
          "internalType": "uint256",
          "name": "tokenId",
          "type": "uint256"
        }
      ],
      "name": "tokenURI",
      "outputs": [
        {
          "internalType": "string",
          "name": "",
          "type": "string"
        }
      ],
      "stateMutability": "view",
      "type": "function"
    },
    {
      "inputs": [],
      "name": "totalMinted",
      "outputs": [
        {
          "internalType": "uint256",
          "name": "",
          "type": "uint256"
        }
      ],
      "stateMutability": "view",
      "type": "function"
    },
    {
      "inputs": [
        {
          "internalType": "address",
          "name": "from",
          "type": "address"
        },
        {
          "internalType": "address",
          "name": "to",
          "type": "address"
        },
        {
          "internalType": "uint256",
          "name": "tokenId",
          "type": "uint256"
        }
      ],
      "name": "transferFrom",
      "outputs": [],
      "stateMutability": "nonpayable",
      "type": "function"
    },
    {
      "inputs": [
        {
          "internalType": "address",
          "name": "newOwner",
          "type": "address"
        }
      ],
      "name": "transferOwnership",
      "outputs": [],
      "stateMutability": "nonpayable",
      "type": "function"
    },
    {
      "inputs": [],
      "name": "withdraw",
      "outputs": [],
      "stateMutability": "nonpayable",
      "type": "function"
    },
    {
      "inputs": [],
      "name": "withdrawWalletAddress",
      "outputs": [
        {
          "internalType": "address payable",
          "name": "",
          "type": "address"
        }
      ],
      "stateMutability": "view",
      "type": "function"
    }
  ],
  "bytecode": "0x6080604052633b9aca0060085560006009553480156200001e57600080fd5b5060405162003ee938038062003ee98339818101604052810190620000449190620003b3565b6040518060400160405280600581526020017f53747261790000000000000000000000000000000000000000000000000000008152506040518060400160405280600581526020017f53545241590000000000000000000000000000000000000000000000000000008152508160009081620000c191906200065a565b508060019081620000d391906200065a565b505050620000f6620000ea6200011760201b60201c565b6200011f60201b60201c565b8160078190555080600a90816200010e91906200065a565b50505062000741565b600033905090565b6000600660009054906101000a900473ffffffffffffffffffffffffffffffffffffffff16905081600660006101000a81548173ffffffffffffffffffffffffffffffffffffffff021916908373ffffffffffffffffffffffffffffffffffffffff1602179055508173ffffffffffffffffffffffffffffffffffffffff168173ffffffffffffffffffffffffffffffffffffffff167f8be0079c531659141344cd1fd0a4f28419497f9722a3daafe3b4186f6b6457e060405160405180910390a35050565b6000604051905090565b600080fd5b600080fd5b6000819050919050565b6200020e81620001f9565b81146200021a57600080fd5b50565b6000815190506200022e8162000203565b92915050565b600080fd5b600080fd5b6000601f19601f8301169050919050565b7f4e487b7100000000000000000000000000000000000000000000000000000000600052604160045260246000fd5b62000289826200023e565b810181811067ffffffffffffffff82111715620002ab57620002aa6200024f565b5b80604052505050565b6000620002c0620001e5565b9050620002ce82826200027e565b919050565b600067ffffffffffffffff821115620002f157620002f06200024f565b5b620002fc826200023e565b9050602081019050919050565b60005b83811015620003295780820151818401526020810190506200030c565b60008484015250505050565b60006200034c6200034684620002d3565b620002b4565b9050828152602081018484840111156200036b576200036a62000239565b5b6200037884828562000309565b509392505050565b600082601f83011262000398576200039762000234565b5b8151620003aa84826020860162000335565b91505092915050565b60008060408385031215620003cd57620003cc620001ef565b5b6000620003dd858286016200021d565b925050602083015167ffffffffffffffff811115620004015762000400620001f4565b5b6200040f8582860162000380565b9150509250929050565b600081519050919050565b7f4e487b7100000000000000000000000000000000000000000000000000000000600052602260045260246000fd5b600060028204905060018216806200046c57607f821691505b60208210810362000482576200048162000424565b5b50919050565b60008190508160005260206000209050919050565b60006020601f8301049050919050565b600082821b905092915050565b600060088302620004ec7fffffffffffffffffffffffffffffffffffffffffffffffffffffffffffffffff82620004ad565b620004f88683620004ad565b95508019841693508086168417925050509392505050565b6000819050919050565b60006200053b620005356200052f84620001f9565b62000510565b620001f9565b9050919050565b6000819050919050565b62000557836200051a565b6200056f620005668262000542565b848454620004ba565b825550505050565b600090565b6200058662000577565b620005938184846200054c565b505050565b5b81811015620005bb57620005af6000826200057c565b60018101905062000599565b5050565b601f8211156200060a57620005d48162000488565b620005df846200049d565b81016020851015620005ef578190505b62000607620005fe856200049d565b83018262000598565b50505b505050565b600082821c905092915050565b60006200062f600019846008026200060f565b1980831691505092915050565b60006200064a83836200061c565b9150826002028217905092915050565b620006658262000419565b67ffffffffffffffff8111156200068157620006806200024f565b5b6200068d825462000453565b6200069a828285620005bf565b600060209050601f831160018114620006d25760008415620006bd578287015190505b620006c985826200063c565b86555062000739565b601f198416620006e28662000488565b60005b828110156200070c57848901518255600182019150602085019450602081019050620006e5565b868310156200072c578489015162000728601f8916826200061c565b8355505b6001600288020188555050505b505050505050565b61379880620007516000396000f3fe6080604052600436106101b75760003560e01c8063715018a6116100ec578063b14ec1011161008a578063d5abeb0111610064578063d5abeb01146105d5578063d63d4af014610600578063e985e9c51461063d578063f2fde38b1461067a576101b7565b8063b14ec10114610544578063b88d4fde1461056f578063c87b56dd14610598576101b7565b806395d89b41116100c657806395d89b41146104a9578063a0712d68146104d4578063a22cb465146104f0578063a2309ff814610519576101b7565b8063715018a61461043c5780637ff9b596146104535780638da5cb5b1461047e576101b7565b806342842e0e116101595780636352211e116101335780636352211e146103705780636a61e5fc146103ad5780636f8b44b0146103d657806370a08231146103ff576101b7565b806342842e0e146102f35780634c0f38c21461031c57806355f804b314610347576101b7565b8063095ea7b311610195578063095ea7b314610261578063212f60391461028a57806323b872dd146102b35780633ccfd60b146102dc576101b7565b806301ffc9a7146101bc57806306fdde03146101f9578063081812fc14610224575b600080fd5b3480156101c857600080fd5b506101e360048036038101906101de9190612101565b6106a3565b6040516101f09190612149565b60405180910390f35b34801561020557600080fd5b5061020e610785565b60405161021b91906121f4565b60405180910390f35b34801561023057600080fd5b5061024b6004803603810190610246919061224c565b610817565b60405161025891906122ba565b60405180910390f35b34801561026d57600080fd5b5061028860048036038101906102839190612301565b61085d565b005b34801561029657600080fd5b506102b160048036038101906102ac919061237f565b610974565b005b3480156102bf57600080fd5b506102da60048036038101906102d591906123ac565b6109c0565b005b3480156102e857600080fd5b506102f1610a20565b005b3480156102ff57600080fd5b5061031a600480360381019061031591906123ac565b610af9565b005b34801561032857600080fd5b50610331610b19565b60405161033e919061240e565b60405180910390f35b34801561035357600080fd5b5061036e6004803603810190610369919061248e565b610b23565b005b34801561037c57600080fd5b506103976004803603810190610392919061224c565b610b41565b6040516103a491906122ba565b60405180910390f35b3480156103b957600080fd5b506103d460048036038101906103cf919061224c565b610bc7565b005b3480156103e257600080fd5b506103fd60048036038101906103f8919061224c565b610bd9565b005b34801561040b57600080fd5b50610426600480360381019061042191906124db565b610beb565b604051610433919061240e565b60405180910390f35b34801561044857600080fd5b50610451610ca2565b005b34801561045f57600080fd5b50610468610cb6565b604051610475919061240e565b60405180910390f35b34801561048a57600080fd5b50610493610cbc565b6040516104a091906122ba565b60405180910390f35b3480156104b557600080fd5b506104be610ce6565b6040516104cb91906121f4565b60405180910390f35b6104ee60048036038101906104e9919061224c565b610d78565b005b3480156104fc57600080fd5b5061051760048036038101906105129190612534565b610e60565b005b34801561052557600080fd5b5061052e610e76565b60405161053b919061240e565b60405180910390f35b34801561055057600080fd5b50610559610e7c565b6040516105669190612583565b60405180910390f35b34801561057b57600080fd5b50610596600480360381019061059191906126ce565b610ea2565b005b3480156105a457600080fd5b506105bf60048036038101906105ba919061224c565b610f04565b6040516105cc91906121f4565b60405180910390f35b3480156105e157600080fd5b506105ea610f80565b6040516105f7919061240e565b60405180910390f35b34801561060c57600080fd5b50610627600480360381019061062291906124db565b610f86565b604051610634919061280f565b60405180910390f35b34801561064957600080fd5b50610664600480360381019061065f9190612831565b611083565b6040516106719190612149565b60405180910390f35b34801561068657600080fd5b506106a1600480360381019061069c91906124db565b611117565b005b60007f80ac58cd000000000000000000000000000000000000000000000000000000007bffffffffffffffffffffffffffffffffffffffffffffffffffffffff1916827bffffffffffffffffffffffffffffffffffffffffffffffffffffffff1916148061076e57507f5b5e139f000000000000000000000000000000000000000000000000000000007bffffffffffffffffffffffffffffffffffffffffffffffffffffffff1916827bffffffffffffffffffffffffffffffffffffffffffffffffffffffff1916145b8061077e575061077d8261119a565b5b9050919050565b606060008054610794906128a0565b80601f01602080910402602001604051908101604052809291908181526020018280546107c0906128a0565b801561080d5780601f106107e25761010080835404028352916020019161080d565b820191906000526020600020905b8154815290600101906020018083116107f057829003601f168201915b5050505050905090565b600061082282611204565b6004600083815260200190815260200160002060009054906101000a900473ffffffffffffffffffffffffffffffffffffffff169050919050565b600061086882610b41565b90508073ffffffffffffffffffffffffffffffffffffffff168373ffffffffffffffffffffffffffffffffffffffff16036108d8576040517f08c379a00000000000000000000000000000000000000000000000000000000081526004016108cf90612943565b60405180910390fd5b8073ffffffffffffffffffffffffffffffffffffffff166108f761124f565b73ffffffffffffffffffffffffffffffffffffffff16148061092657506109258161092061124f565b611083565b5b610965576040517f08c379a000000000000000000000000000000000000000000000000000000000815260040161095c906129d5565b60405180910390fd5b61096f8383611257565b505050565b61097c611310565b80600b60006101000a81548173ffffffffffffffffffffffffffffffffffffffff021916908373ffffffffffffffffffffffffffffffffffffffff16021790555050565b6109d16109cb61124f565b8261138e565b610a10576040517f08c379a0000000000000000000000000000000000000000000000000000000008152600401610a0790612a67565b60405180910390fd5b610a1b838383611423565b505050565b610a28611310565b6000600b60009054906101000a900473ffffffffffffffffffffffffffffffffffffffff1673ffffffffffffffffffffffffffffffffffffffff1647604051610a7090612ab8565b60006040518083038185875af1925050503d8060008114610aad576040519150601f19603f3d011682016040523d82523d6000602084013e610ab2565b606091505b5050905080610af6576040517f08c379a0000000000000000000000000000000000000000000000000000000008152600401610aed90612b19565b60405180910390fd5b50565b610b1483838360405180602001604052806000815250610ea2565b505050565b6000600754905090565b610b2b611310565b8181600a9182610b3c929190612cf0565b505050565b600080610b4d8361171c565b9050600073ffffffffffffffffffffffffffffffffffffffff168173ffffffffffffffffffffffffffffffffffffffff1603610bbe576040517f08c379a0000000000000000000000000000000000000000000000000000000008152600401610bb590612e0c565b60405180910390fd5b80915050919050565b610bcf611310565b8060088190555050565b610be1611310565b8060078190555050565b60008073ffffffffffffffffffffffffffffffffffffffff168273ffffffffffffffffffffffffffffffffffffffff1603610c5b576040517f08c379a0000000000000000000000000000000000000000000000000000000008152600401610c5290612e9e565b60405180910390fd5b600360008373ffffffffffffffffffffffffffffffffffffffff1673ffffffffffffffffffffffffffffffffffffffff168152602001908152602001600020549050919050565b610caa611310565b610cb46000611759565b565b60085481565b6000600660009054906101000a900473ffffffffffffffffffffffffffffffffffffffff16905090565b606060018054610cf5906128a0565b80601f0160208091040260200160405190810160405280929190818152602001828054610d21906128a0565b8015610d6e5780601f10610d4357610100808354040283529160200191610d6e565b820191906000526020600020905b815481529060010190602001808311610d5157829003601f168201915b5050505050905090565b60075481600954610d899190612eed565b1115610dca576040517f08c379a0000000000000000000000000000000000000000000000000000000008152600401610dc190612f6d565b60405180910390fd5b60085481610dd89190612f8d565b341015610e1a576040517f08c379a0000000000000000000000000000000000000000000000000000000008152600401610e119061301b565b60405180910390fd5b60005b81811015610e5c5760096000815480929190610e389061303b565b9190505550610e493360095461181f565b8080610e549061303b565b915050610e1d565b5050565b610e72610e6b61124f565b838361183d565b5050565b60095481565b600b60009054906101000a900473ffffffffffffffffffffffffffffffffffffffff1681565b610eb3610ead61124f565b8361138e565b610ef2576040517f08c379a0000000000000000000000000000000000000000000000000000000008152600401610ee990612a67565b60405180910390fd5b610efe848484846119a9565b50505050565b6060610f0f82611a05565b610f4e576040517f08c379a0000000000000000000000000000000000000000000000000000000008152600401610f45906130cf565b60405180910390fd5b600a610f5983611a46565b604051602001610f6a9291906131fa565b6040516020818303038152906040529050919050565b60075481565b60606000610f9383610beb565b67ffffffffffffffff811115610fac57610fab6125a3565b5b604051908082528060200260200182016040528015610fda5781602001602082028036833780820191505090505b5090506000805b600954811015611078578473ffffffffffffffffffffffffffffffffffffffff1661100b82610b41565b73ffffffffffffffffffffffffffffffffffffffff1603611065578083838151811061103a57611039613229565b5b60200260200101818152505081806110519061303b565b92505061105d85610beb565b820315611078575b80806110709061303b565b915050610fe1565b508192505050919050565b6000600560008473ffffffffffffffffffffffffffffffffffffffff1673ffffffffffffffffffffffffffffffffffffffff16815260200190815260200160002060008373ffffffffffffffffffffffffffffffffffffffff1673ffffffffffffffffffffffffffffffffffffffff16815260200190815260200160002060009054906101000a900460ff16905092915050565b61111f611310565b600073ffffffffffffffffffffffffffffffffffffffff168173ffffffffffffffffffffffffffffffffffffffff160361118e576040517f08c379a0000000000000000000000000000000000000000000000000000000008152600401611185906132ca565b60405180910390fd5b61119781611759565b50565b60007f01ffc9a7000000000000000000000000000000000000000000000000000000007bffffffffffffffffffffffffffffffffffffffffffffffffffffffff1916827bffffffffffffffffffffffffffffffffffffffffffffffffffffffff1916149050919050565b61120d81611a05565b61124c576040517f08c379a000000000000000000000000000000000000000000000000000000000815260040161124390612e0c565b60405180910390fd5b50565b600033905090565b816004600083815260200190815260200160002060006101000a81548173ffffffffffffffffffffffffffffffffffffffff021916908373ffffffffffffffffffffffffffffffffffffffff160217905550808273ffffffffffffffffffffffffffffffffffffffff166112ca83610b41565b73ffffffffffffffffffffffffffffffffffffffff167f8c5be1e5ebec7d5bd14f71427d1e84f3dd0314c0f7b2291e5b200ac8c7c3b92560405160405180910390a45050565b61131861124f565b73ffffffffffffffffffffffffffffffffffffffff16611336610cbc565b73ffffffffffffffffffffffffffffffffffffffff161461138c576040517f08c379a000000000000000000000000000000000000000000000000000000000815260040161138390613336565b60405180910390fd5b565b60008061139a83610b41565b90508073ffffffffffffffffffffffffffffffffffffffff168473ffffffffffffffffffffffffffffffffffffffff1614806113dc57506113db8185611083565b5b8061141a57508373ffffffffffffffffffffffffffffffffffffffff1661140284610817565b73ffffffffffffffffffffffffffffffffffffffff16145b91505092915050565b8273ffffffffffffffffffffffffffffffffffffffff1661144382610b41565b73ffffffffffffffffffffffffffffffffffffffff1614611499576040517f08c379a0000000000000000000000000000000000000000000000000000000008152600401611490906133c8565b60405180910390fd5b600073ffffffffffffffffffffffffffffffffffffffff168273ffffffffffffffffffffffffffffffffffffffff1603611508576040517f08c379a00000000000000000000000000000000000000000000000000000000081526004016114ff9061345a565b60405180910390fd5b6115158383836001611b14565b8273ffffffffffffffffffffffffffffffffffffffff1661153582610b41565b73ffffffffffffffffffffffffffffffffffffffff161461158b576040517f08c379a0000000000000000000000000000000000000000000000000000000008152600401611582906133c8565b60405180910390fd5b6004600082815260200190815260200160002060006101000a81549073ffffffffffffffffffffffffffffffffffffffff02191690556001600360008573ffffffffffffffffffffffffffffffffffffffff1673ffffffffffffffffffffffffffffffffffffffff168152602001908152602001600020600082825403925050819055506001600360008473ffffffffffffffffffffffffffffffffffffffff1673ffffffffffffffffffffffffffffffffffffffff16815260200190815260200160002060008282540192505081905550816002600083815260200190815260200160002060006101000a81548173ffffffffffffffffffffffffffffffffffffffff021916908373ffffffffffffffffffffffffffffffffffffffff160217905550808273ffffffffffffffffffffffffffffffffffffffff168473ffffffffffffffffffffffffffffffffffffffff167fddf252ad1be2c89b69c2b068fc378daa952ba7f163c4a11628f55a4df523b3ef60405160405180910390a46117178383836001611b1a565b505050565b60006002600083815260200190815260200160002060009054906101000a900473ffffffffffffffffffffffffffffffffffffffff169050919050565b6000600660009054906101000a900473ffffffffffffffffffffffffffffffffffffffff16905081600660006101000a81548173ffffffffffffffffffffffffffffffffffffffff021916908373ffffffffffffffffffffffffffffffffffffffff1602179055508173ffffffffffffffffffffffffffffffffffffffff168173ffffffffffffffffffffffffffffffffffffffff167f8be0079c531659141344cd1fd0a4f28419497f9722a3daafe3b4186f6b6457e060405160405180910390a35050565b611839828260405180602001604052806000815250611b20565b5050565b8173ffffffffffffffffffffffffffffffffffffffff168373ffffffffffffffffffffffffffffffffffffffff16036118ab576040517f08c379a00000000000000000000000000000000000000000000000000000000081526004016118a2906134c6565b60405180910390fd5b80600560008573ffffffffffffffffffffffffffffffffffffffff1673ffffffffffffffffffffffffffffffffffffffff16815260200190815260200160002060008473ffffffffffffffffffffffffffffffffffffffff1673ffffffffffffffffffffffffffffffffffffffff16815260200190815260200160002060006101000a81548160ff0219169083151502179055508173ffffffffffffffffffffffffffffffffffffffff168373ffffffffffffffffffffffffffffffffffffffff167f17307eab39ab6107e8899845ad3d59bd9653f200f220920489ca2b5937696c318360405161199c9190612149565b60405180910390a3505050565b6119b4848484611423565b6119c084848484611b7b565b6119ff576040517f08c379a00000000000000000000000000000000000000000000000000000000081526004016119f690613558565b60405180910390fd5b50505050565b60008073ffffffffffffffffffffffffffffffffffffffff16611a278361171c565b73ffffffffffffffffffffffffffffffffffffffff1614159050919050565b606060006001611a5584611d02565b01905060008167ffffffffffffffff811115611a7457611a736125a3565b5b6040519080825280601f01601f191660200182016040528015611aa65781602001600182028036833780820191505090505b509050600082602001820190505b600115611b09578080600190039150507f3031323334353637383961626364656600000000000000000000000000000000600a86061a8153600a8581611afd57611afc613578565b5b04945060008503611ab4575b819350505050919050565b50505050565b50505050565b611b2a8383611e55565b611b376000848484611b7b565b611b76576040517f08c379a0000000000000000000000000000000000000000000000000000000008152600401611b6d90613558565b60405180910390fd5b505050565b6000611b9c8473ffffffffffffffffffffffffffffffffffffffff16612072565b15611cf5578373ffffffffffffffffffffffffffffffffffffffff1663150b7a02611bc561124f565b8786866040518563ffffffff1660e01b8152600401611be794939291906135fc565b6020604051808303816000875af1925050508015611c2357506040513d601f19601f82011682018060405250810190611c20919061365d565b60015b611ca5573d8060008114611c53576040519150601f19603f3d011682016040523d82523d6000602084013e611c58565b606091505b506000815103611c9d576040517f08c379a0000000000000000000000000000000000000000000000000000000008152600401611c9490613558565b60405180910390fd5b805181602001fd5b63150b7a0260e01b7bffffffffffffffffffffffffffffffffffffffffffffffffffffffff1916817bffffffffffffffffffffffffffffffffffffffffffffffffffffffff191614915050611cfa565b600190505b949350505050565b600080600090507a184f03e93ff9f4daa797ed6e38ed64bf6a1f0100000000000000008310611d60577a184f03e93ff9f4daa797ed6e38ed64bf6a1f0100000000000000008381611d5657611d55613578565b5b0492506040810190505b6d04ee2d6d415b85acef81000000008310611d9d576d04ee2d6d415b85acef81000000008381611d9357611d92613578565b5b0492506020810190505b662386f26fc100008310611dcc57662386f26fc100008381611dc257611dc1613578565b5b0492506010810190505b6305f5e1008310611df5576305f5e1008381611deb57611dea613578565b5b0492506008810190505b6127108310611e1a576127108381611e1057611e0f613578565b5b0492506004810190505b60648310611e3d5760648381611e3357611e32613578565b5b0492506002810190505b600a8310611e4c576001810190505b80915050919050565b600073ffffffffffffffffffffffffffffffffffffffff168273ffffffffffffffffffffffffffffffffffffffff1603611ec4576040517f08c379a0000000000000000000000000000000000000000000000000000000008152600401611ebb906136d6565b60405180910390fd5b611ecd81611a05565b15611f0d576040517f08c379a0000000000000000000000000000000000000000000000000000000008152600401611f0490613742565b60405180910390fd5b611f1b600083836001611b14565b611f2481611a05565b15611f64576040517f08c379a0000000000000000000000000000000000000000000000000000000008152600401611f5b90613742565b60405180910390fd5b6001600360008473ffffffffffffffffffffffffffffffffffffffff1673ffffffffffffffffffffffffffffffffffffffff16815260200190815260200160002060008282540192505081905550816002600083815260200190815260200160002060006101000a81548173ffffffffffffffffffffffffffffffffffffffff021916908373ffffffffffffffffffffffffffffffffffffffff160217905550808273ffffffffffffffffffffffffffffffffffffffff16600073ffffffffffffffffffffffffffffffffffffffff167fddf252ad1be2c89b69c2b068fc378daa952ba7f163c4a11628f55a4df523b3ef60405160405180910390a461206e600083836001611b1a565b5050565b6000808273ffffffffffffffffffffffffffffffffffffffff163b119050919050565b6000604051905090565b600080fd5b600080fd5b60007fffffffff0000000000000000000000000000000000000000000000000000000082169050919050565b6120de816120a9565b81146120e957600080fd5b50565b6000813590506120fb816120d5565b92915050565b6000602082840312156121175761211661209f565b5b6000612125848285016120ec565b91505092915050565b60008115159050919050565b6121438161212e565b82525050565b600060208201905061215e600083018461213a565b92915050565b600081519050919050565b600082825260208201905092915050565b60005b8381101561219e578082015181840152602081019050612183565b60008484015250505050565b6000601f19601f8301169050919050565b60006121c682612164565b6121d0818561216f565b93506121e0818560208601612180565b6121e9816121aa565b840191505092915050565b6000602082019050818103600083015261220e81846121bb565b905092915050565b6000819050919050565b61222981612216565b811461223457600080fd5b50565b60008135905061224681612220565b92915050565b6000602082840312156122625761226161209f565b5b600061227084828501612237565b91505092915050565b600073ffffffffffffffffffffffffffffffffffffffff82169050919050565b60006122a482612279565b9050919050565b6122b481612299565b82525050565b60006020820190506122cf60008301846122ab565b92915050565b6122de81612299565b81146122e957600080fd5b50565b6000813590506122fb816122d5565b92915050565b600080604083850312156123185761231761209f565b5b6000612326858286016122ec565b925050602061233785828601612237565b9150509250929050565b600061234c82612279565b9050919050565b61235c81612341565b811461236757600080fd5b50565b60008135905061237981612353565b92915050565b6000602082840312156123955761239461209f565b5b60006123a38482850161236a565b91505092915050565b6000806000606084860312156123c5576123c461209f565b5b60006123d3868287016122ec565b93505060206123e4868287016122ec565b92505060406123f586828701612237565b9150509250925092565b61240881612216565b82525050565b600060208201905061242360008301846123ff565b92915050565b600080fd5b600080fd5b600080fd5b60008083601f84011261244e5761244d612429565b5b8235905067ffffffffffffffff81111561246b5761246a61242e565b5b60208301915083600182028301111561248757612486612433565b5b9250929050565b600080602083850312156124a5576124a461209f565b5b600083013567ffffffffffffffff8111156124c3576124c26120a4565b5b6124cf85828601612438565b92509250509250929050565b6000602082840312156124f1576124f061209f565b5b60006124ff848285016122ec565b91505092915050565b6125118161212e565b811461251c57600080fd5b50565b60008135905061252e81612508565b92915050565b6000806040838503121561254b5761254a61209f565b5b6000612559858286016122ec565b925050602061256a8582860161251f565b9150509250929050565b61257d81612341565b82525050565b60006020820190506125986000830184612574565b92915050565b600080fd5b7f4e487b7100000000000000000000000000000000000000000000000000000000600052604160045260246000fd5b6125db826121aa565b810181811067ffffffffffffffff821117156125fa576125f96125a3565b5b80604052505050565b600061260d612095565b905061261982826125d2565b919050565b600067ffffffffffffffff821115612639576126386125a3565b5b612642826121aa565b9050602081019050919050565b82818337600083830152505050565b600061267161266c8461261e565b612603565b90508281526020810184848401111561268d5761268c61259e565b5b61269884828561264f565b509392505050565b600082601f8301126126b5576126b4612429565b5b81356126c584826020860161265e565b91505092915050565b600080600080608085870312156126e8576126e761209f565b5b60006126f6878288016122ec565b9450506020612707878288016122ec565b935050604061271887828801612237565b925050606085013567ffffffffffffffff811115612739576127386120a4565b5b612745878288016126a0565b91505092959194509250565b600081519050919050565b600082825260208201905092915050565b6000819050602082019050919050565b61278681612216565b82525050565b6000612798838361277d565b60208301905092915050565b6000602082019050919050565b60006127bc82612751565b6127c6818561275c565b93506127d18361276d565b8060005b838110156128025781516127e9888261278c565b97506127f4836127a4565b9250506001810190506127d5565b5085935050505092915050565b6000602082019050818103600083015261282981846127b1565b905092915050565b600080604083850312156128485761284761209f565b5b6000612856858286016122ec565b9250506020612867858286016122ec565b9150509250929050565b7f4e487b7100000000000000000000000000000000000000000000000000000000600052602260045260246000fd5b600060028204905060018216806128b857607f821691505b6020821081036128cb576128ca612871565b5b50919050565b7f4552433732313a20617070726f76616c20746f2063757272656e74206f776e6560008201527f7200000000000000000000000000000000000000000000000000000000000000602082015250565b600061292d60218361216f565b9150612938826128d1565b604082019050919050565b6000602082019050818103600083015261295c81612920565b9050919050565b7f4552433732313a20617070726f76652063616c6c6572206973206e6f7420746f60008201527f6b656e206f776e6572206f7220617070726f76656420666f7220616c6c000000602082015250565b60006129bf603d8361216f565b91506129ca82612963565b604082019050919050565b600060208201905081810360008301526129ee816129b2565b9050919050565b7f4552433732313a2063616c6c6572206973206e6f7420746f6b656e206f776e6560008201527f72206f7220617070726f76656400000000000000000000000000000000000000602082015250565b6000612a51602d8361216f565b9150612a5c826129f5565b604082019050919050565b60006020820190508181036000830152612a8081612a44565b9050919050565b600081905092915050565b50565b6000612aa2600083612a87565b9150612aad82612a92565b600082019050919050565b6000612ac382612a95565b9150819050919050565b7f7769746864726177206661696c65640000000000000000000000000000000000600082015250565b6000612b03600f8361216f565b9150612b0e82612acd565b602082019050919050565b60006020820190508181036000830152612b3281612af6565b9050919050565b600082905092915050565b60008190508160005260206000209050919050565b60006020601f8301049050919050565b600082821b905092915050565b600060088302612ba67fffffffffffffffffffffffffffffffffffffffffffffffffffffffffffffffff82612b69565b612bb08683612b69565b95508019841693508086168417925050509392505050565b6000819050919050565b6000612bed612be8612be384612216565b612bc8565b612216565b9050919050565b6000819050919050565b612c0783612bd2565b612c1b612c1382612bf4565b848454612b76565b825550505050565b600090565b612c30612c23565b612c3b818484612bfe565b505050565b5b81811015612c5f57612c54600082612c28565b600181019050612c41565b5050565b601f821115612ca457612c7581612b44565b612c7e84612b59565b81016020851015612c8d578190505b612ca1612c9985612b59565b830182612c40565b50505b505050565b600082821c905092915050565b6000612cc760001984600802612ca9565b1980831691505092915050565b6000612ce08383612cb6565b9150826002028217905092915050565b612cfa8383612b39565b67ffffffffffffffff811115612d1357612d126125a3565b5b612d1d82546128a0565b612d28828285612c63565b6000601f831160018114612d575760008415612d45578287013590505b612d4f8582612cd4565b865550612db7565b601f198416612d6586612b44565b60005b82811015612d8d57848901358255600182019150602085019450602081019050612d68565b86831015612daa5784890135612da6601f891682612cb6565b8355505b6001600288020188555050505b50505050505050565b7f4552433732313a20696e76616c696420746f6b656e2049440000000000000000600082015250565b6000612df660188361216f565b9150612e0182612dc0565b602082019050919050565b60006020820190508181036000830152612e2581612de9565b9050919050565b7f4552433732313a2061646472657373207a65726f206973206e6f74206120766160008201527f6c6964206f776e65720000000000000000000000000000000000000000000000602082015250565b6000612e8860298361216f565b9150612e9382612e2c565b604082019050919050565b60006020820190508181036000830152612eb781612e7b565b9050919050565b7f4e487b7100000000000000000000000000000000000000000000000000000000600052601160045260246000fd5b6000612ef882612216565b9150612f0383612216565b9250828201905080821115612f1b57612f1a612ebe565b5b92915050565b7f4e6f7420656e6f75676820737570706c79206c65667400000000000000000000600082015250565b6000612f5760168361216f565b9150612f6282612f21565b602082019050919050565b60006020820190508181036000830152612f8681612f4a565b9050919050565b6000612f9882612216565b9150612fa383612216565b9250828202612fb181612216565b91508282048414831517612fc857612fc7612ebe565b5b5092915050565b7f496e737566666963656e742046756e6473000000000000000000000000000000600082015250565b600061300560118361216f565b915061301082612fcf565b602082019050919050565b6000602082019050818103600083015261303481612ff8565b9050919050565b600061304682612216565b91507fffffffffffffffffffffffffffffffffffffffffffffffffffffffffffffffff820361307857613077612ebe565b5b600182019050919050565b7f546f6b656e20646f6573206e6f74206578697374000000000000000000000000600082015250565b60006130b960148361216f565b91506130c482613083565b602082019050919050565b600060208201905081810360008301526130e8816130ac565b9050919050565b600081905092915050565b60008154613107816128a0565b61311181866130ef565b9450600182166000811461312c576001811461314157613174565b60ff1983168652811515820286019350613174565b61314a85612b44565b60005b8381101561316c5781548189015260018201915060208101905061314d565b838801955050505b50505092915050565b600061318882612164565b61319281856130ef565b93506131a2818560208601612180565b80840191505092915050565b7f2e6a736f6e000000000000000000000000000000000000000000000000000000600082015250565b60006131e46005836130ef565b91506131ef826131ae565b600582019050919050565b600061320682856130fa565b9150613212828461317d565b915061321d826131d7565b91508190509392505050565b7f4e487b7100000000000000000000000000000000000000000000000000000000600052603260045260246000fd5b7f4f776e61626c653a206e6577206f776e657220697320746865207a65726f206160008201527f6464726573730000000000000000000000000000000000000000000000000000602082015250565b60006132b460268361216f565b91506132bf82613258565b604082019050919050565b600060208201905081810360008301526132e3816132a7565b9050919050565b7f4f776e61626c653a2063616c6c6572206973206e6f7420746865206f776e6572600082015250565b600061332060208361216f565b915061332b826132ea565b602082019050919050565b6000602082019050818103600083015261334f81613313565b9050919050565b7f4552433732313a207472616e736665722066726f6d20696e636f72726563742060008201527f6f776e6572000000000000000000000000000000000000000000000000000000602082015250565b60006133b260258361216f565b91506133bd82613356565b604082019050919050565b600060208201905081810360008301526133e1816133a5565b9050919050565b7f4552433732313a207472616e7366657220746f20746865207a65726f2061646460008201527f7265737300000000000000000000000000000000000000000000000000000000602082015250565b600061344460248361216f565b915061344f826133e8565b604082019050919050565b6000602082019050818103600083015261347381613437565b9050919050565b7f4552433732313a20617070726f766520746f2063616c6c657200000000000000600082015250565b60006134b060198361216f565b91506134bb8261347a565b602082019050919050565b600060208201905081810360008301526134df816134a3565b9050919050565b7f4552433732313a207472616e7366657220746f206e6f6e20455243373231526560008201527f63656976657220696d706c656d656e7465720000000000000000000000000000602082015250565b600061354260328361216f565b915061354d826134e6565b604082019050919050565b6000602082019050818103600083015261357181613535565b9050919050565b7f4e487b7100000000000000000000000000000000000000000000000000000000600052601260045260246000fd5b600081519050919050565b600082825260208201905092915050565b60006135ce826135a7565b6135d881856135b2565b93506135e8818560208601612180565b6135f1816121aa565b840191505092915050565b600060808201905061361160008301876122ab565b61361e60208301866122ab565b61362b60408301856123ff565b818103606083015261363d81846135c3565b905095945050505050565b600081519050613657816120d5565b92915050565b6000602082840312156136735761367261209f565b5b600061368184828501613648565b91505092915050565b7f4552433732313a206d696e7420746f20746865207a65726f2061646472657373600082015250565b60006136c060208361216f565b91506136cb8261368a565b602082019050919050565b600060208201905081810360008301526136ef816136b3565b9050919050565b7f4552433732313a20746f6b656e20616c7265616479206d696e74656400000000600082015250565b600061372c601c8361216f565b9150613737826136f6565b602082019050919050565b6000602082019050818103600083015261375b8161371f565b905091905056fea264697066735822122002a1ea0281fbebb06caa25d924914ee25e6fb556c0415805ec3107eb12f97fd464736f6c63430008120033",
  "linkReferences": {},
  "deployedLinkReferences": {}
}