{
  "_format": "hh-sol-artifact-1",
  "contractName": "Stray",
  "sourceName": "contracts/Stray.sol",
  "abi": [
    {
      "inputs": [
        {
          "internalType": "uint256",
          "name": "max_supply",
          "type": "uint256"
        },
        {
          "internalType": "string",
          "name": "base_token_URI",
          "type": "string"
        }
      ],
      "stateMutability": "nonpayable",
      "type": "constructor"
    },
    {
      "inputs": [],
      "name": "ApprovalCallerNotOwnerNorApproved",
      "type": "error"
    },
    {
      "inputs": [],
      "name": "ApprovalQueryForNonexistentToken",
      "type": "error"
    },
    {
      "inputs": [],
      "name": "BalanceQueryForZeroAddress",
      "type": "error"
    },
    {
      "inputs": [],
      "name": "MintERC2309QuantityExceedsLimit",
      "type": "error"
    },
    {
      "inputs": [],
      "name": "MintToZeroAddress",
      "type": "error"
    },
    {
      "inputs": [],
      "name": "MintZeroQuantity",
      "type": "error"
    },
    {
      "inputs": [],
      "name": "OwnerQueryForNonexistentToken",
      "type": "error"
    },
    {
      "inputs": [],
      "name": "OwnershipNotInitializedForExtraData",
      "type": "error"
    },
    {
      "inputs": [],
      "name": "TransferCallerNotOwnerNorApproved",
      "type": "error"
    },
    {
      "inputs": [],
      "name": "TransferFromIncorrectOwner",
      "type": "error"
    },
    {
      "inputs": [],
      "name": "TransferToNonERC721ReceiverImplementer",
      "type": "error"
    },
    {
      "inputs": [],
      "name": "TransferToZeroAddress",
      "type": "error"
    },
    {
      "inputs": [],
      "name": "URIQueryForNonexistentToken",
      "type": "error"
    },
    {
      "anonymous": false,
      "inputs": [
        {
          "indexed": true,
          "internalType": "address",
          "name": "owner",
          "type": "address"
        },
        {
          "indexed": true,
          "internalType": "address",
          "name": "approved",
          "type": "address"
        },
        {
          "indexed": true,
          "internalType": "uint256",
          "name": "tokenId",
          "type": "uint256"
        }
      ],
      "name": "Approval",
      "type": "event"
    },
    {
      "anonymous": false,
      "inputs": [
        {
          "indexed": true,
          "internalType": "address",
          "name": "owner",
          "type": "address"
        },
        {
          "indexed": true,
          "internalType": "address",
          "name": "operator",
          "type": "address"
        },
        {
          "indexed": false,
          "internalType": "bool",
          "name": "approved",
          "type": "bool"
        }
      ],
      "name": "ApprovalForAll",
      "type": "event"
    },
    {
      "anonymous": false,
      "inputs": [
        {
          "indexed": true,
          "internalType": "uint256",
          "name": "fromTokenId",
          "type": "uint256"
        },
        {
          "indexed": false,
          "internalType": "uint256",
          "name": "toTokenId",
          "type": "uint256"
        },
        {
          "indexed": true,
          "internalType": "address",
          "name": "from",
          "type": "address"
        },
        {
          "indexed": true,
          "internalType": "address",
          "name": "to",
          "type": "address"
        }
      ],
      "name": "ConsecutiveTransfer",
      "type": "event"
    },
    {
      "anonymous": false,
      "inputs": [
        {
          "indexed": true,
          "internalType": "address",
          "name": "previousOwner",
          "type": "address"
        },
        {
          "indexed": true,
          "internalType": "address",
          "name": "newOwner",
          "type": "address"
        }
      ],
      "name": "OwnershipTransferred",
      "type": "event"
    },
    {
      "anonymous": false,
      "inputs": [
        {
          "indexed": true,
          "internalType": "address",
          "name": "from",
          "type": "address"
        },
        {
          "indexed": true,
          "internalType": "address",
          "name": "to",
          "type": "address"
        },
        {
          "indexed": true,
          "internalType": "uint256",
          "name": "tokenId",
          "type": "uint256"
        }
      ],
      "name": "Transfer",
      "type": "event"
    },
    {
      "inputs": [
        {
          "internalType": "address",
          "name": "to",
          "type": "address"
        },
        {
          "internalType": "uint256",
          "name": "tokenId",
          "type": "uint256"
        }
      ],
      "name": "approve",
      "outputs": [],
      "stateMutability": "payable",
      "type": "function"
    },
    {
      "inputs": [
        {
          "internalType": "address",
          "name": "owner",
          "type": "address"
        }
      ],
      "name": "balanceOf",
      "outputs": [
        {
          "internalType": "uint256",
          "name": "",
          "type": "uint256"
        }
      ],
      "stateMutability": "view",
      "type": "function"
    },
    {
      "inputs": [
        {
          "internalType": "uint256",
          "name": "tokenId",
          "type": "uint256"
        }
      ],
      "name": "getApproved",
      "outputs": [
        {
          "internalType": "address",
          "name": "",
          "type": "address"
        }
      ],
      "stateMutability": "view",
      "type": "function"
    },
    {
      "inputs": [],
      "name": "getMaxSupply",
      "outputs": [
        {
          "internalType": "uint256",
          "name": "",
          "type": "uint256"
        }
      ],
      "stateMutability": "view",
      "type": "function"
    },
    {
      "inputs": [
        {
          "internalType": "address",
          "name": "owner",
          "type": "address"
        }
      ],
      "name": "getOwnerTokens",
      "outputs": [
        {
          "internalType": "uint256[]",
          "name": "",
          "type": "uint256[]"
        }
      ],
      "stateMutability": "view",
      "type": "function"
    },
    {
      "inputs": [
        {
          "internalType": "address",
          "name": "owner",
          "type": "address"
        },
        {
          "internalType": "address",
          "name": "operator",
          "type": "address"
        }
      ],
      "name": "isApprovedForAll",
      "outputs": [
        {
          "internalType": "bool",
          "name": "",
          "type": "bool"
        }
      ],
      "stateMutability": "view",
      "type": "function"
    },
    {
      "inputs": [],
      "name": "maxSupply",
      "outputs": [
        {
          "internalType": "uint256",
          "name": "",
          "type": "uint256"
        }
      ],
      "stateMutability": "view",
      "type": "function"
    },
    {
      "inputs": [
        {
          "internalType": "uint256",
          "name": "quantity",
          "type": "uint256"
        }
      ],
      "name": "mint",
      "outputs": [],
      "stateMutability": "payable",
      "type": "function"
    },
    {
      "inputs": [],
      "name": "name",
      "outputs": [
        {
          "internalType": "string",
          "name": "",
          "type": "string"
        }
      ],
      "stateMutability": "view",
      "type": "function"
    },
    {
      "inputs": [],
      "name": "owner",
      "outputs": [
        {
          "internalType": "address",
          "name": "",
          "type": "address"
        }
      ],
      "stateMutability": "view",
      "type": "function"
    },
    {
      "inputs": [
        {
          "internalType": "uint256",
          "name": "tokenId",
          "type": "uint256"
        }
      ],
      "name": "ownerOf",
      "outputs": [
        {
          "internalType": "address",
          "name": "",
          "type": "address"
        }
      ],
      "stateMutability": "view",
      "type": "function"
    },
    {
      "inputs": [],
      "name": "renounceOwnership",
      "outputs": [],
      "stateMutability": "nonpayable",
      "type": "function"
    },
    {
      "inputs": [
        {
          "internalType": "address",
          "name": "from",
          "type": "address"
        },
        {
          "internalType": "address",
          "name": "to",
          "type": "address"
        },
        {
          "internalType": "uint256",
          "name": "tokenId",
          "type": "uint256"
        }
      ],
      "name": "safeTransferFrom",
      "outputs": [],
      "stateMutability": "payable",
      "type": "function"
    },
    {
      "inputs": [
        {
          "internalType": "address",
          "name": "from",
          "type": "address"
        },
        {
          "internalType": "address",
          "name": "to",
          "type": "address"
        },
        {
          "internalType": "uint256",
          "name": "tokenId",
          "type": "uint256"
        },
        {
          "internalType": "bytes",
          "name": "_data",
          "type": "bytes"
        }
      ],
      "name": "safeTransferFrom",
      "outputs": [],
      "stateMutability": "payable",
      "type": "function"
    },
    {
      "inputs": [
        {
          "internalType": "address",
          "name": "operator",
          "type": "address"
        },
        {
          "internalType": "bool",
          "name": "approved",
          "type": "bool"
        }
      ],
      "name": "setApprovalForAll",
      "outputs": [],
      "stateMutability": "nonpayable",
      "type": "function"
    },
    {
      "inputs": [
        {
          "internalType": "string",
          "name": "baseURI",
          "type": "string"
        }
      ],
      "name": "setBaseURI",
      "outputs": [],
      "stateMutability": "nonpayable",
      "type": "function"
    },
    {
      "inputs": [
        {
          "internalType": "uint256",
          "name": "supply",
          "type": "uint256"
        }
      ],
      "name": "setMaxSupply",
      "outputs": [],
      "stateMutability": "nonpayable",
      "type": "function"
    },
    {
      "inputs": [
        {
          "internalType": "uint256",
          "name": "price",
          "type": "uint256"
        }
      ],
      "name": "setTokenPrice",
      "outputs": [],
      "stateMutability": "nonpayable",
      "type": "function"
    },
    {
      "inputs": [
        {
          "internalType": "address payable",
          "name": "wallet",
          "type": "address"
        }
      ],
      "name": "setWithdrawWalletAddress",
      "outputs": [],
      "stateMutability": "nonpayable",
      "type": "function"
    },
    {
      "inputs": [
        {
          "internalType": "bytes4",
          "name": "interfaceId",
          "type": "bytes4"
        }
      ],
      "name": "supportsInterface",
      "outputs": [
        {
          "internalType": "bool",
          "name": "",
          "type": "bool"
        }
      ],
      "stateMutability": "view",
      "type": "function"
    },
    {
      "inputs": [],
      "name": "symbol",
      "outputs": [
        {
          "internalType": "string",
          "name": "",
          "type": "string"
        }
      ],
      "stateMutability": "view",
      "type": "function"
    },
    {
      "inputs": [],
      "name": "tokenPrice",
      "outputs": [
        {
          "internalType": "uint256",
          "name": "",
          "type": "uint256"
        }
      ],
      "stateMutability": "view",
      "type": "function"
    },
    {
      "inputs": [
        {
          "internalType": "uint256",
          "name": "tokenId",
          "type": "uint256"
        }
      ],
      "name": "tokenURI",
      "outputs": [
        {
          "internalType": "string",
          "name": "",
          "type": "string"
        }
      ],
      "stateMutability": "view",
      "type": "function"
    },
    {
      "inputs": [],
      "name": "totalSupply",
      "outputs": [
        {
          "internalType": "uint256",
          "name": "",
          "type": "uint256"
        }
      ],
      "stateMutability": "view",
      "type": "function"
    },
    {
      "inputs": [
        {
          "internalType": "address",
          "name": "from",
          "type": "address"
        },
        {
          "internalType": "address",
          "name": "to",
          "type": "address"
        },
        {
          "internalType": "uint256",
          "name": "tokenId",
          "type": "uint256"
        }
      ],
      "name": "transferFrom",
      "outputs": [],
      "stateMutability": "payable",
      "type": "function"
    },
    {
      "inputs": [
        {
          "internalType": "address",
          "name": "newOwner",
          "type": "address"
        }
      ],
      "name": "transferOwnership",
      "outputs": [],
      "stateMutability": "nonpayable",
      "type": "function"
    },
    {
      "inputs": [],
      "name": "withdraw",
      "outputs": [],
      "stateMutability": "nonpayable",
      "type": "function"
    },
    {
      "inputs": [],
      "name": "withdrawWalletAddress",
      "outputs": [
        {
          "internalType": "address payable",
          "name": "",
          "type": "address"
        }
      ],
      "stateMutability": "view",
      "type": "function"
    }
  ],
  "bytecode": "0x6080604052633b9aca00600a553480156200001957600080fd5b50604051620034153803806200341583398181016040528101906200003f9190620003c9565b6040518060400160405280600581526020017f53747261790000000000000000000000000000000000000000000000000000008152506040518060400160405280600581526020017f53545241590000000000000000000000000000000000000000000000000000008152508160029081620000bc919062000670565b508060039081620000ce919062000670565b50620000df6200012860201b60201c565b600081905550505062000107620000fb6200012d60201b60201c565b6200013560201b60201c565b8160098190555080600b90816200011f919062000670565b50505062000757565b600090565b600033905090565b6000600860009054906101000a900473ffffffffffffffffffffffffffffffffffffffff16905081600860006101000a81548173ffffffffffffffffffffffffffffffffffffffff021916908373ffffffffffffffffffffffffffffffffffffffff1602179055508173ffffffffffffffffffffffffffffffffffffffff168173ffffffffffffffffffffffffffffffffffffffff167f8be0079c531659141344cd1fd0a4f28419497f9722a3daafe3b4186f6b6457e060405160405180910390a35050565b6000604051905090565b600080fd5b600080fd5b6000819050919050565b62000224816200020f565b81146200023057600080fd5b50565b600081519050620002448162000219565b92915050565b600080fd5b600080fd5b6000601f19601f8301169050919050565b7f4e487b7100000000000000000000000000000000000000000000000000000000600052604160045260246000fd5b6200029f8262000254565b810181811067ffffffffffffffff82111715620002c157620002c062000265565b5b80604052505050565b6000620002d6620001fb565b9050620002e4828262000294565b919050565b600067ffffffffffffffff82111562000307576200030662000265565b5b620003128262000254565b9050602081019050919050565b60005b838110156200033f57808201518184015260208101905062000322565b60008484015250505050565b6000620003626200035c84620002e9565b620002ca565b9050828152602081018484840111156200038157620003806200024f565b5b6200038e8482856200031f565b509392505050565b600082601f830112620003ae57620003ad6200024a565b5b8151620003c08482602086016200034b565b91505092915050565b60008060408385031215620003e357620003e262000205565b5b6000620003f38582860162000233565b925050602083015167ffffffffffffffff8111156200041757620004166200020a565b5b620004258582860162000396565b9150509250929050565b600081519050919050565b7f4e487b7100000000000000000000000000000000000000000000000000000000600052602260045260246000fd5b600060028204905060018216806200048257607f821691505b6020821081036200049857620004976200043a565b5b50919050565b60008190508160005260206000209050919050565b60006020601f8301049050919050565b600082821b905092915050565b600060088302620005027fffffffffffffffffffffffffffffffffffffffffffffffffffffffffffffffff82620004c3565b6200050e8683620004c3565b95508019841693508086168417925050509392505050565b6000819050919050565b6000620005516200054b62000545846200020f565b62000526565b6200020f565b9050919050565b6000819050919050565b6200056d8362000530565b620005856200057c8262000558565b848454620004d0565b825550505050565b600090565b6200059c6200058d565b620005a981848462000562565b505050565b5b81811015620005d157620005c560008262000592565b600181019050620005af565b5050565b601f8211156200062057620005ea816200049e565b620005f584620004b3565b8101602085101562000605578190505b6200061d6200061485620004b3565b830182620005ae565b50505b505050565b600082821c905092915050565b6000620006456000198460080262000625565b1980831691505092915050565b600062000660838362000632565b9150826002028217905092915050565b6200067b826200042f565b67ffffffffffffffff81111562000697576200069662000265565b5b620006a3825462000469565b620006b0828285620005d5565b600060209050601f831160018114620006e85760008415620006d3578287015190505b620006df858262000652565b8655506200074f565b601f198416620006f8866200049e565b60005b828110156200072257848901518255600182019150602085019450602081019050620006fb565b868310156200074257848901516200073e601f89168262000632565b8355505b6001600288020188555050505b505050505050565b612cae80620007676000396000f3fe6080604052600436106101b75760003560e01c806370a08231116100ec578063b14ec1011161008a578063d5abeb0111610064578063d5abeb01146105a1578063d63d4af0146105cc578063e985e9c514610609578063f2fde38b14610646576101b7565b8063b14ec1011461051d578063b88d4fde14610548578063c87b56dd14610564576101b7565b80638da5cb5b116100c65780638da5cb5b1461048257806395d89b41146104ad578063a0712d68146104d8578063a22cb465146104f4576101b7565b806370a0823114610403578063715018a6146104405780637ff9b59614610457576101b7565b80633ccfd60b1161015957806355f804b31161013357806355f804b31461034b5780636352211e146103745780636a61e5fc146103b15780636f8b44b0146103da576101b7565b80633ccfd60b146102ed57806342842e0e146103045780634c0f38c214610320576101b7565b8063095ea7b311610195578063095ea7b31461026157806318160ddd1461027d578063212f6039146102a857806323b872dd146102d1576101b7565b806301ffc9a7146101bc57806306fdde03146101f9578063081812fc14610224575b600080fd5b3480156101c857600080fd5b506101e360048036038101906101de9190611bf4565b61066f565b6040516101f09190611c3c565b60405180910390f35b34801561020557600080fd5b5061020e610701565b60405161021b9190611ce7565b60405180910390f35b34801561023057600080fd5b5061024b60048036038101906102469190611d3f565b610793565b6040516102589190611dad565b60405180910390f35b61027b60048036038101906102769190611df4565b610812565b005b34801561028957600080fd5b50610292610956565b60405161029f9190611e43565b60405180910390f35b3480156102b457600080fd5b506102cf60048036038101906102ca9190611e9c565b61096d565b005b6102eb60048036038101906102e69190611ec9565b6109b9565b005b3480156102f957600080fd5b50610302610cdb565b005b61031e60048036038101906103199190611ec9565b610db4565b005b34801561032c57600080fd5b50610335610dd4565b6040516103429190611e43565b60405180910390f35b34801561035757600080fd5b50610372600480360381019061036d9190611f81565b610dde565b005b34801561038057600080fd5b5061039b60048036038101906103969190611d3f565b610dfc565b6040516103a89190611dad565b60405180910390f35b3480156103bd57600080fd5b506103d860048036038101906103d39190611d3f565b610e0e565b005b3480156103e657600080fd5b5061040160048036038101906103fc9190611d3f565b610e20565b005b34801561040f57600080fd5b5061042a60048036038101906104259190611fce565b610e32565b6040516104379190611e43565b60405180910390f35b34801561044c57600080fd5b50610455610eea565b005b34801561046357600080fd5b5061046c610efe565b6040516104799190611e43565b60405180910390f35b34801561048e57600080fd5b50610497610f04565b6040516104a49190611dad565b60405180910390f35b3480156104b957600080fd5b506104c2610f2e565b6040516104cf9190611ce7565b60405180910390f35b6104f260048036038101906104ed9190611d3f565b610fc0565b005b34801561050057600080fd5b5061051b60048036038101906105169190612027565b611074565b005b34801561052957600080fd5b5061053261117f565b60405161053f9190612076565b60405180910390f35b610562600480360381019061055d91906121c1565b6111a5565b005b34801561057057600080fd5b5061058b60048036038101906105869190611d3f565b611218565b6040516105989190611ce7565b60405180910390f35b3480156105ad57600080fd5b506105b6611294565b6040516105c39190611e43565b60405180910390f35b3480156105d857600080fd5b506105f360048036038101906105ee9190611fce565b61129a565b6040516106009190612302565b60405180910390f35b34801561061557600080fd5b50610630600480360381019061062b9190612324565b61139c565b60405161063d9190611c3c565b60405180910390f35b34801561065257600080fd5b5061066d60048036038101906106689190611fce565b611430565b005b60006301ffc9a760e01b827bffffffffffffffffffffffffffffffffffffffffffffffffffffffff191614806106ca57506380ac58cd60e01b827bffffffffffffffffffffffffffffffffffffffffffffffffffffffff1916145b806106fa5750635b5e139f60e01b827bffffffffffffffffffffffffffffffffffffffffffffffffffffffff1916145b9050919050565b60606002805461071090612393565b80601f016020809104026020016040519081016040528092919081815260200182805461073c90612393565b80156107895780601f1061075e57610100808354040283529160200191610789565b820191906000526020600020905b81548152906001019060200180831161076c57829003601f168201915b5050505050905090565b600061079e826114b3565b6107d4576040517fcf4700e400000000000000000000000000000000000000000000000000000000815260040160405180910390fd5b6006600083815260200190815260200160002060000160009054906101000a900473ffffffffffffffffffffffffffffffffffffffff169050919050565b600061081d82610dfc565b90508073ffffffffffffffffffffffffffffffffffffffff1661083e611512565b73ffffffffffffffffffffffffffffffffffffffff16146108a15761086a81610865611512565b61139c565b6108a0576040517fcfb3b94200000000000000000000000000000000000000000000000000000000815260040160405180910390fd5b5b826006600084815260200190815260200160002060000160006101000a81548173ffffffffffffffffffffffffffffffffffffffff021916908373ffffffffffffffffffffffffffffffffffffffff160217905550818373ffffffffffffffffffffffffffffffffffffffff168273ffffffffffffffffffffffffffffffffffffffff167f8c5be1e5ebec7d5bd14f71427d1e84f3dd0314c0f7b2291e5b200ac8c7c3b92560405160405180910390a4505050565b600061096061151a565b6001546000540303905090565b61097561151f565b80600c60006101000a81548173ffffffffffffffffffffffffffffffffffffffff021916908373ffffffffffffffffffffffffffffffffffffffff16021790555050565b60006109c48261159d565b90508373ffffffffffffffffffffffffffffffffffffffff168173ffffffffffffffffffffffffffffffffffffffff1614610a2b576040517fa114810000000000000000000000000000000000000000000000000000000000815260040160405180910390fd5b600080610a3784611669565b91509150610a4d8187610a48611512565b611690565b610a9957610a6286610a5d611512565b61139c565b610a98576040517f59c896be00000000000000000000000000000000000000000000000000000000815260040160405180910390fd5b5b600073ffffffffffffffffffffffffffffffffffffffff168573ffffffffffffffffffffffffffffffffffffffff1603610aff576040517fea553b3400000000000000000000000000000000000000000000000000000000815260040160405180910390fd5b610b0c86868660016116d4565b8015610b1757600082555b600560008773ffffffffffffffffffffffffffffffffffffffff1673ffffffffffffffffffffffffffffffffffffffff168152602001908152602001600020600081546001900391905081905550600560008673ffffffffffffffffffffffffffffffffffffffff1673ffffffffffffffffffffffffffffffffffffffff1681526020019081526020016000206000815460010191905081905550610be585610bc18888876116da565b7c020000000000000000000000000000000000000000000000000000000017611702565b600460008681526020019081526020016000208190555060007c0200000000000000000000000000000000000000000000000000000000841603610c6b5760006001850190506000600460008381526020019081526020016000205403610c69576000548114610c68578360046000838152602001908152602001600020819055505b5b505b838573ffffffffffffffffffffffffffffffffffffffff168773ffffffffffffffffffffffffffffffffffffffff167fddf252ad1be2c89b69c2b068fc378daa952ba7f163c4a11628f55a4df523b3ef60405160405180910390a4610cd3868686600161172d565b505050505050565b610ce361151f565b6000600c60009054906101000a900473ffffffffffffffffffffffffffffffffffffffff1673ffffffffffffffffffffffffffffffffffffffff1647604051610d2b906123f5565b60006040518083038185875af1925050503d8060008114610d68576040519150601f19603f3d011682016040523d82523d6000602084013e610d6d565b606091505b5050905080610db1576040517f08c379a0000000000000000000000000000000000000000000000000000000008152600401610da890612456565b60405180910390fd5b50565b610dcf838383604051806020016040528060008152506111a5565b505050565b6000600954905090565b610de661151f565b8181600b9182610df792919061262d565b505050565b6000610e078261159d565b9050919050565b610e1661151f565b80600a8190555050565b610e2861151f565b8060098190555050565b60008073ffffffffffffffffffffffffffffffffffffffff168273ffffffffffffffffffffffffffffffffffffffff1603610e99576040517f8f4eb60400000000000000000000000000000000000000000000000000000000815260040160405180910390fd5b67ffffffffffffffff600560008473ffffffffffffffffffffffffffffffffffffffff1673ffffffffffffffffffffffffffffffffffffffff16815260200190815260200160002054169050919050565b610ef261151f565b610efc6000611733565b565b600a5481565b6000600860009054906101000a900473ffffffffffffffffffffffffffffffffffffffff16905090565b606060038054610f3d90612393565b80601f0160208091040260200160405190810160405280929190818152602001828054610f6990612393565b8015610fb65780601f10610f8b57610100808354040283529160200191610fb6565b820191906000526020600020905b815481529060010190602001808311610f9957829003601f168201915b5050505050905090565b60095481610fcc6117f9565b610fd6919061272c565b1115611017576040517f08c379a000000000000000000000000000000000000000000000000000000000815260040161100e906127ac565b60405180910390fd5b600a548161102591906127cc565b341015611067576040517f08c379a000000000000000000000000000000000000000000000000000000000815260040161105e9061285a565b60405180910390fd5b611071338261180c565b50565b8060076000611081611512565b73ffffffffffffffffffffffffffffffffffffffff1673ffffffffffffffffffffffffffffffffffffffff16815260200190815260200160002060008473ffffffffffffffffffffffffffffffffffffffff1673ffffffffffffffffffffffffffffffffffffffff16815260200190815260200160002060006101000a81548160ff0219169083151502179055508173ffffffffffffffffffffffffffffffffffffffff1661112e611512565b73ffffffffffffffffffffffffffffffffffffffff167f17307eab39ab6107e8899845ad3d59bd9653f200f220920489ca2b5937696c31836040516111739190611c3c565b60405180910390a35050565b600c60009054906101000a900473ffffffffffffffffffffffffffffffffffffffff1681565b6111b08484846109b9565b60008373ffffffffffffffffffffffffffffffffffffffff163b14611212576111db848484846119c7565b611211576040517fd1a57ed600000000000000000000000000000000000000000000000000000000815260040160405180910390fd5b5b50505050565b6060611223826114b3565b611262576040517f08c379a0000000000000000000000000000000000000000000000000000000008152600401611259906128c6565b60405180910390fd5b600b61126d83611b17565b60405160200161127e9291906129f1565b6040516020818303038152906040529050919050565b60095481565b606060006112a783610e32565b67ffffffffffffffff8111156112c0576112bf612096565b5b6040519080825280602002602001820160405280156112ee5781602001602082028036833780820191505090505b5090506000805b6112fd6117f9565b811015611391578473ffffffffffffffffffffffffffffffffffffffff1661132482610dfc565b73ffffffffffffffffffffffffffffffffffffffff160361137e578083838151811061135357611352612a20565b5b602002602001018181525050818061136a90612a4f565b92505061137685610e32565b820315611391575b808061138990612a4f565b9150506112f5565b508192505050919050565b6000600760008473ffffffffffffffffffffffffffffffffffffffff1673ffffffffffffffffffffffffffffffffffffffff16815260200190815260200160002060008373ffffffffffffffffffffffffffffffffffffffff1673ffffffffffffffffffffffffffffffffffffffff16815260200190815260200160002060009054906101000a900460ff16905092915050565b61143861151f565b600073ffffffffffffffffffffffffffffffffffffffff168173ffffffffffffffffffffffffffffffffffffffff16036114a7576040517f08c379a000000000000000000000000000000000000000000000000000000000815260040161149e90612b09565b60405180910390fd5b6114b081611733565b50565b6000816114be61151a565b111580156114cd575060005482105b801561150b575060007c0100000000000000000000000000000000000000000000000000000000600460008581526020019081526020016000205416145b9050919050565b600033905090565b600090565b611527611b67565b73ffffffffffffffffffffffffffffffffffffffff16611545610f04565b73ffffffffffffffffffffffffffffffffffffffff161461159b576040517f08c379a000000000000000000000000000000000000000000000000000000000815260040161159290612b75565b60405180910390fd5b565b600080829050806115ac61151a565b11611632576000548110156116315760006004600083815260200190815260200160002054905060007c010000000000000000000000000000000000000000000000000000000082160361162f575b600081036116255760046000836001900393508381526020019081526020016000205490506115fb565b8092505050611664565b505b5b6040517fdf2d9b4200000000000000000000000000000000000000000000000000000000815260040160405180910390fd5b919050565b60008060006006600085815260200190815260200160002090508092508254915050915091565b600073ffffffffffffffffffffffffffffffffffffffff8316925073ffffffffffffffffffffffffffffffffffffffff821691508382148383141790509392505050565b50505050565b60008060e883901c905060e86116f1868684611b6f565b62ffffff16901b9150509392505050565b600073ffffffffffffffffffffffffffffffffffffffff83169250814260a01b178317905092915050565b50505050565b6000600860009054906101000a900473ffffffffffffffffffffffffffffffffffffffff16905081600860006101000a81548173ffffffffffffffffffffffffffffffffffffffff021916908373ffffffffffffffffffffffffffffffffffffffff1602179055508173ffffffffffffffffffffffffffffffffffffffff168173ffffffffffffffffffffffffffffffffffffffff167f8be0079c531659141344cd1fd0a4f28419497f9722a3daafe3b4186f6b6457e060405160405180910390a35050565b600061180361151a565b60005403905090565b6000805490506000820361184c576040517fb562e8dd00000000000000000000000000000000000000000000000000000000815260040160405180910390fd5b61185960008483856116d4565b600160406001901b178202600560008573ffffffffffffffffffffffffffffffffffffffff1673ffffffffffffffffffffffffffffffffffffffff168152602001908152602001600020600082825401925050819055506118d0836118c160008660006116da565b6118ca85611b78565b17611702565b6004600083815260200190815260200160002081905550600080838301905073ffffffffffffffffffffffffffffffffffffffff85169150828260007fddf252ad1be2c89b69c2b068fc378daa952ba7f163c4a11628f55a4df523b3ef600080a4600183015b81811461197157808360007fddf252ad1be2c89b69c2b068fc378daa952ba7f163c4a11628f55a4df523b3ef600080a4600181019050611936565b50600082036119ac576040517f2e07630000000000000000000000000000000000000000000000000000000000815260040160405180910390fd5b8060008190555050506119c2600084838561172d565b505050565b60008373ffffffffffffffffffffffffffffffffffffffff1663150b7a026119ed611512565b8786866040518563ffffffff1660e01b8152600401611a0f9493929190612bea565b6020604051808303816000875af1925050508015611a4b57506040513d601f19601f82011682018060405250810190611a489190612c4b565b60015b611ac4573d8060008114611a7b576040519150601f19603f3d011682016040523d82523d6000602084013e611a80565b606091505b506000815103611abc576040517fd1a57ed600000000000000000000000000000000000000000000000000000000815260040160405180910390fd5b805181602001fd5b63150b7a0260e01b7bffffffffffffffffffffffffffffffffffffffffffffffffffffffff1916817bffffffffffffffffffffffffffffffffffffffffffffffffffffffff191614915050949350505050565b606060a060405101806040526020810391506000825281835b600115611b5257600184039350600a81066030018453600a8104905080611b30575b50828103602084039350808452505050919050565b600033905090565b60009392505050565b60006001821460e11b9050919050565b6000604051905090565b600080fd5b600080fd5b60007fffffffff0000000000000000000000000000000000000000000000000000000082169050919050565b611bd181611b9c565b8114611bdc57600080fd5b50565b600081359050611bee81611bc8565b92915050565b600060208284031215611c0a57611c09611b92565b5b6000611c1884828501611bdf565b91505092915050565b60008115159050919050565b611c3681611c21565b82525050565b6000602082019050611c516000830184611c2d565b92915050565b600081519050919050565b600082825260208201905092915050565b60005b83811015611c91578082015181840152602081019050611c76565b60008484015250505050565b6000601f19601f8301169050919050565b6000611cb982611c57565b611cc38185611c62565b9350611cd3818560208601611c73565b611cdc81611c9d565b840191505092915050565b60006020820190508181036000830152611d018184611cae565b905092915050565b6000819050919050565b611d1c81611d09565b8114611d2757600080fd5b50565b600081359050611d3981611d13565b92915050565b600060208284031215611d5557611d54611b92565b5b6000611d6384828501611d2a565b91505092915050565b600073ffffffffffffffffffffffffffffffffffffffff82169050919050565b6000611d9782611d6c565b9050919050565b611da781611d8c565b82525050565b6000602082019050611dc26000830184611d9e565b92915050565b611dd181611d8c565b8114611ddc57600080fd5b50565b600081359050611dee81611dc8565b92915050565b60008060408385031215611e0b57611e0a611b92565b5b6000611e1985828601611ddf565b9250506020611e2a85828601611d2a565b9150509250929050565b611e3d81611d09565b82525050565b6000602082019050611e586000830184611e34565b92915050565b6000611e6982611d6c565b9050919050565b611e7981611e5e565b8114611e8457600080fd5b50565b600081359050611e9681611e70565b92915050565b600060208284031215611eb257611eb1611b92565b5b6000611ec084828501611e87565b91505092915050565b600080600060608486031215611ee257611ee1611b92565b5b6000611ef086828701611ddf565b9350506020611f0186828701611ddf565b9250506040611f1286828701611d2a565b9150509250925092565b600080fd5b600080fd5b600080fd5b60008083601f840112611f4157611f40611f1c565b5b8235905067ffffffffffffffff811115611f5e57611f5d611f21565b5b602083019150836001820283011115611f7a57611f79611f26565b5b9250929050565b60008060208385031215611f9857611f97611b92565b5b600083013567ffffffffffffffff811115611fb657611fb5611b97565b5b611fc285828601611f2b565b92509250509250929050565b600060208284031215611fe457611fe3611b92565b5b6000611ff284828501611ddf565b91505092915050565b61200481611c21565b811461200f57600080fd5b50565b60008135905061202181611ffb565b92915050565b6000806040838503121561203e5761203d611b92565b5b600061204c85828601611ddf565b925050602061205d85828601612012565b9150509250929050565b61207081611e5e565b82525050565b600060208201905061208b6000830184612067565b92915050565b600080fd5b7f4e487b7100000000000000000000000000000000000000000000000000000000600052604160045260246000fd5b6120ce82611c9d565b810181811067ffffffffffffffff821117156120ed576120ec612096565b5b80604052505050565b6000612100611b88565b905061210c82826120c5565b919050565b600067ffffffffffffffff82111561212c5761212b612096565b5b61213582611c9d565b9050602081019050919050565b82818337600083830152505050565b600061216461215f84612111565b6120f6565b9050828152602081018484840111156121805761217f612091565b5b61218b848285612142565b509392505050565b600082601f8301126121a8576121a7611f1c565b5b81356121b8848260208601612151565b91505092915050565b600080600080608085870312156121db576121da611b92565b5b60006121e987828801611ddf565b94505060206121fa87828801611ddf565b935050604061220b87828801611d2a565b925050606085013567ffffffffffffffff81111561222c5761222b611b97565b5b61223887828801612193565b91505092959194509250565b600081519050919050565b600082825260208201905092915050565b6000819050602082019050919050565b61227981611d09565b82525050565b600061228b8383612270565b60208301905092915050565b6000602082019050919050565b60006122af82612244565b6122b9818561224f565b93506122c483612260565b8060005b838110156122f55781516122dc888261227f565b97506122e783612297565b9250506001810190506122c8565b5085935050505092915050565b6000602082019050818103600083015261231c81846122a4565b905092915050565b6000806040838503121561233b5761233a611b92565b5b600061234985828601611ddf565b925050602061235a85828601611ddf565b9150509250929050565b7f4e487b7100000000000000000000000000000000000000000000000000000000600052602260045260246000fd5b600060028204905060018216806123ab57607f821691505b6020821081036123be576123bd612364565b5b50919050565b600081905092915050565b50565b60006123df6000836123c4565b91506123ea826123cf565b600082019050919050565b6000612400826123d2565b9150819050919050565b7f7769746864726177206661696c65640000000000000000000000000000000000600082015250565b6000612440600f83611c62565b915061244b8261240a565b602082019050919050565b6000602082019050818103600083015261246f81612433565b9050919050565b600082905092915050565b60008190508160005260206000209050919050565b60006020601f8301049050919050565b600082821b905092915050565b6000600883026124e37fffffffffffffffffffffffffffffffffffffffffffffffffffffffffffffffff826124a6565b6124ed86836124a6565b95508019841693508086168417925050509392505050565b6000819050919050565b600061252a61252561252084611d09565b612505565b611d09565b9050919050565b6000819050919050565b6125448361250f565b61255861255082612531565b8484546124b3565b825550505050565b600090565b61256d612560565b61257881848461253b565b505050565b5b8181101561259c57612591600082612565565b60018101905061257e565b5050565b601f8211156125e1576125b281612481565b6125bb84612496565b810160208510156125ca578190505b6125de6125d685612496565b83018261257d565b50505b505050565b600082821c905092915050565b6000612604600019846008026125e6565b1980831691505092915050565b600061261d83836125f3565b9150826002028217905092915050565b6126378383612476565b67ffffffffffffffff8111156126505761264f612096565b5b61265a8254612393565b6126658282856125a0565b6000601f8311600181146126945760008415612682578287013590505b61268c8582612611565b8655506126f4565b601f1984166126a286612481565b60005b828110156126ca578489013582556001820191506020850194506020810190506126a5565b868310156126e757848901356126e3601f8916826125f3565b8355505b6001600288020188555050505b50505050505050565b7f4e487b7100000000000000000000000000000000000000000000000000000000600052601160045260246000fd5b600061273782611d09565b915061274283611d09565b925082820190508082111561275a576127596126fd565b5b92915050565b7f4e6f7420656e6f75676820737570706c79206c65667400000000000000000000600082015250565b6000612796601683611c62565b91506127a182612760565b602082019050919050565b600060208201905081810360008301526127c581612789565b9050919050565b60006127d782611d09565b91506127e283611d09565b92508282026127f081611d09565b91508282048414831517612807576128066126fd565b5b5092915050565b7f496e737566666963656e742046756e6473000000000000000000000000000000600082015250565b6000612844601183611c62565b915061284f8261280e565b602082019050919050565b6000602082019050818103600083015261287381612837565b9050919050565b7f546f6b656e20646f6573206e6f74206578697374000000000000000000000000600082015250565b60006128b0601483611c62565b91506128bb8261287a565b602082019050919050565b600060208201905081810360008301526128df816128a3565b9050919050565b600081905092915050565b600081546128fe81612393565b61290881866128e6565b9450600182166000811461292357600181146129385761296b565b60ff198316865281151582028601935061296b565b61294185612481565b60005b8381101561296357815481890152600182019150602081019050612944565b838801955050505b50505092915050565b600061297f82611c57565b61298981856128e6565b9350612999818560208601611c73565b80840191505092915050565b7f2e6a736f6e000000000000000000000000000000000000000000000000000000600082015250565b60006129db6005836128e6565b91506129e6826129a5565b600582019050919050565b60006129fd82856128f1565b9150612a098284612974565b9150612a14826129ce565b91508190509392505050565b7f4e487b7100000000000000000000000000000000000000000000000000000000600052603260045260246000fd5b6000612a5a82611d09565b91507fffffffffffffffffffffffffffffffffffffffffffffffffffffffffffffffff8203612a8c57612a8b6126fd565b5b600182019050919050565b7f4f776e61626c653a206e6577206f776e657220697320746865207a65726f206160008201527f6464726573730000000000000000000000000000000000000000000000000000602082015250565b6000612af3602683611c62565b9150612afe82612a97565b604082019050919050565b60006020820190508181036000830152612b2281612ae6565b9050919050565b7f4f776e61626c653a2063616c6c6572206973206e6f7420746865206f776e6572600082015250565b6000612b5f602083611c62565b9150612b6a82612b29565b602082019050919050565b60006020820190508181036000830152612b8e81612b52565b9050919050565b600081519050919050565b600082825260208201905092915050565b6000612bbc82612b95565b612bc68185612ba0565b9350612bd6818560208601611c73565b612bdf81611c9d565b840191505092915050565b6000608082019050612bff6000830187611d9e565b612c0c6020830186611d9e565b612c196040830185611e34565b8181036060830152612c2b8184612bb1565b905095945050505050565b600081519050612c4581611bc8565b92915050565b600060208284031215612c6157612c60611b92565b5b6000612c6f84828501612c36565b9150509291505056fea264697066735822122014e84dc067d84fb54496233b266d6042df5ced1d2d91724ade0b948fdca7a8b664736f6c63430008120033",
  "linkReferences": {},
  "deployedLinkReferences": {}
}